{
  "contractName": "Baseball",
  "abi": [
    {
      "inputs": [
        {
          "internalType": "address",
          "name": "tokenAddress",
          "type": "address"
        }
      ],
      "stateMutability": "nonpayable",
      "type": "constructor"
    },
    {
      "inputs": [],
      "name": "GAME_COUNT",
      "outputs": [
        {
          "internalType": "uint256",
          "name": "",
          "type": "uint256"
        }
      ],
      "stateMutability": "view",
      "type": "function"
    },
    {
      "inputs": [],
      "name": "gameState",
      "outputs": [
        {
          "internalType": "enum Baseball.GameState",
          "name": "",
          "type": "uint8"
        }
      ],
      "stateMutability": "view",
      "type": "function"
    },
    {
      "inputs": [],
      "name": "owner",
      "outputs": [
        {
          "internalType": "address",
          "name": "",
          "type": "address"
        }
      ],
      "stateMutability": "view",
      "type": "function"
    },
    {
      "inputs": [],
      "name": "progress",
      "outputs": [
        {
          "internalType": "uint256",
          "name": "",
          "type": "uint256"
        }
      ],
      "stateMutability": "view",
      "type": "function"
    },
    {
      "inputs": [],
      "name": "reword",
      "outputs": [
        {
          "internalType": "uint256",
          "name": "",
          "type": "uint256"
        }
      ],
      "stateMutability": "view",
      "type": "function"
    },
    {
      "inputs": [],
      "name": "ticket",
      "outputs": [
        {
          "internalType": "uint256",
          "name": "",
          "type": "uint256"
        }
      ],
      "stateMutability": "view",
      "type": "function"
    },
    {
      "inputs": [],
      "name": "token",
      "outputs": [
        {
          "internalType": "contract IERC20",
          "name": "",
          "type": "address"
        }
      ],
      "stateMutability": "view",
      "type": "function"
    },
    {
      "inputs": [
        {
          "internalType": "uint256",
          "name": "_value",
          "type": "uint256"
        }
      ],
      "name": "gameStart",
      "outputs": [],
      "stateMutability": "nonpayable",
      "type": "function"
    },
    {
      "inputs": [],
      "name": "withdrawToOwner",
      "outputs": [],
      "stateMutability": "nonpayable",
      "type": "function"
    },
    {
      "inputs": [],
      "name": "getReword",
      "outputs": [
        {
          "internalType": "uint256",
          "name": "",
          "type": "uint256"
        }
      ],
      "stateMutability": "view",
      "type": "function"
    },
    {
      "inputs": [],
      "name": "getProgeress",
      "outputs": [
        {
          "internalType": "uint256",
          "name": "",
          "type": "uint256"
        }
      ],
      "stateMutability": "view",
      "type": "function"
    },
    {
      "inputs": [],
      "name": "getPlaying",
      "outputs": [
        {
          "internalType": "uint256",
          "name": "",
          "type": "uint256"
        }
      ],
      "stateMutability": "view",
      "type": "function"
    },
    {
      "inputs": [],
      "name": "getRandom",
      "outputs": [
        {
          "internalType": "uint256",
          "name": "",
          "type": "uint256"
        }
      ],
      "stateMutability": "view",
      "type": "function"
    }
  ],
  "bytecode": "0x608060405268056bc75e2d631000006002553480156200001d575f80fd5b5060405162001223380380620012238339818101604052810190620000439190620001ac565b335f806101000a81548173ffffffffffffffffffffffffffffffffffffffff021916908373ffffffffffffffffffffffffffffffffffffffff1602179055505f60065f6101000a81548160ff02191690836001811115620000a957620000a8620001dc565b5b02179055508060015f6101000a81548173ffffffffffffffffffffffffffffffffffffffff021916908373ffffffffffffffffffffffffffffffffffffffff16021790555060646103844244436040516020016200010a9392919062000236565b604051602081830303815290604052805190602001205f1c6200012e9190620002a5565b6200013a919062000309565b6005819055505062000343565b5f80fd5b5f73ffffffffffffffffffffffffffffffffffffffff82169050919050565b5f62000176826200014b565b9050919050565b62000188816200016a565b811462000193575f80fd5b50565b5f81519050620001a6816200017d565b92915050565b5f60208284031215620001c457620001c362000147565b5b5f620001d38482850162000196565b91505092915050565b7f4e487b71000000000000000000000000000000000000000000000000000000005f52602160045260245ffd5b5f819050919050565b5f819050919050565b620002306200022a8262000209565b62000212565b82525050565b5f6200024382866200021b565b6020820191506200025582856200021b565b6020820191506200026782846200021b565b602082019150819050949350505050565b7f4e487b71000000000000000000000000000000000000000000000000000000005f52601260045260245ffd5b5f620002b18262000209565b9150620002be8362000209565b925082620002d157620002d062000278565b5b828206905092915050565b7f4e487b71000000000000000000000000000000000000000000000000000000005f52601160045260245ffd5b5f620003158262000209565b9150620003228362000209565b92508282019050808211156200033d576200033c620002dc565b5b92915050565b610ed280620003515f395ff3fe608060405234801561000f575f80fd5b50600436106100cd575f3560e01c8063aacc5a171161008a578063c38599e011610064578063c38599e0146101c9578063d1f9c24d146101e7578063dfbee21f14610205578063fc0c546a14610223576100cd565b8063aacc5a1714610171578063b8a5368a1461018f578063be6f0a4d146101ab576100cd565b80633cb40e16146100d1578063577bd336146100db5780636c2e6b4f146100f95780636cc25db714610117578063810ab154146101355780638da5cb5b14610153575b5f80fd5b6100d9610241565b005b6100e361045b565b6040516100f09190610910565b60405180910390f35b610101610461565b60405161010e9190610910565b60405180910390f35b61011f61046a565b60405161012c9190610910565b60405180910390f35b61013d610470565b60405161014a9190610910565b60405180910390f35b61015b6104bb565b6040516101689190610968565b60405180910390f35b6101796104de565b6040516101869190610910565b60405180910390f35b6101a960048036038101906101a491906109af565b610575565b005b6101b36108ad565b6040516101c09190610910565b60405180910390f35b6101d16108b3565b6040516101de9190610910565b60405180910390f35b6101ef6108b8565b6040516101fc9190610a4d565b60405180910390f35b61020d6108ca565b60405161021a9190610910565b60405180910390f35b61022b6108d3565b6040516102389190610ac1565b60405180910390f35b5f8054906101000a900473ffffffffffffffffffffffffffffffffffffffff1673ffffffffffffffffffffffffffffffffffffffff163373ffffffffffffffffffffffffffffffffffffffff16146102ce576040517f08c379a00000000000000000000000000000000000000000000000000000000081526004016102c590610b34565b60405180910390fd5b5f60018111156102e1576102e06109da565b5b60065f9054906101000a900460ff166001811115610302576103016109da565b5b14806103115750600a60035410155b610350576040517f08c379a000000000000000000000000000000000000000000000000000000000815260040161034790610b9c565b60405180910390fd5b5f60045411610394576040517f08c379a000000000000000000000000000000000000000000000000000000000815260040161038b90610c04565b60405180910390fd5b60015f9054906101000a900473ffffffffffffffffffffffffffffffffffffffff1673ffffffffffffffffffffffffffffffffffffffff1663a9059cbb5f8054906101000a900473ffffffffffffffffffffffffffffffffffffffff166004546040518363ffffffff1660e01b8152600401610411929190610c22565b6020604051808303815f875af115801561042d573d5f803e3d5ffd5b505050506040513d601f19601f820116820180604052508101906104519190610c7e565b505f600481905550565b60035481565b5f600354905090565b60025481565b5f806001811115610484576104836109da565b5b60065f9054906101000a900460ff1660018111156104a5576104a46109da565b5b146104b15760016104b3565b5f5b60ff16905090565b5f8054906101000a900473ffffffffffffffffffffffffffffffffffffffff1681565b5f805f9054906101000a900473ffffffffffffffffffffffffffffffffffffffff1673ffffffffffffffffffffffffffffffffffffffff163373ffffffffffffffffffffffffffffffffffffffff161461056d576040517f08c379a000000000000000000000000000000000000000000000000000000000815260040161056490610b34565b60405180910390fd5b600554905090565b600a600354106105ba576040517f08c379a00000000000000000000000000000000000000000000000000000000081526004016105b190610cf3565b60405180910390fd5b5f60018111156105cd576105cc6109da565b5b60065f9054906101000a900460ff1660018111156105ee576105ed6109da565b5b1461062e576040517f08c379a000000000000000000000000000000000000000000000000000000000815260040161062590610cf3565b60405180910390fd5b6064811015801561064057506103e881105b61067f576040517f08c379a000000000000000000000000000000000000000000000000000000000815260040161067690610d5b565b60405180910390fd5b5f60015f9054906101000a900473ffffffffffffffffffffffffffffffffffffffff1673ffffffffffffffffffffffffffffffffffffffff166323b872dd33306002546040518463ffffffff1660e01b81526004016106e093929190610d79565b6020604051808303815f875af11580156106fc573d5f803e3d5ffd5b505050506040513d601f19601f820116820180604052508101906107209190610c7e565b905080610762576040517f08c379a000000000000000000000000000000000000000000000000000000000815260040161075990610e1e565b60405180910390fd5b600160035f8282546107749190610e69565b9250508190555060025460045f82825461078e9190610e69565b9250508190555060055482036108735760015f9054906101000a900473ffffffffffffffffffffffffffffffffffffffff1673ffffffffffffffffffffffffffffffffffffffff1663a9059cbb336004546040518363ffffffff1660e01b81526004016107fc929190610c22565b6020604051808303815f875af1158015610818573d5f803e3d5ffd5b505050506040513d601f19601f8201168201806040525081019061083c9190610c7e565b505f600481905550600160065f6101000a81548160ff02191690836001811115610869576108686109da565b5b02179055506108a9565b600a600354036108a857600160065f6101000a81548160ff021916908360018111156108a2576108a16109da565b5b02179055505b5b5050565b60045481565b600a81565b60065f9054906101000a900460ff1681565b5f600454905090565b60015f9054906101000a900473ffffffffffffffffffffffffffffffffffffffff1681565b5f819050919050565b61090a816108f8565b82525050565b5f6020820190506109235f830184610901565b92915050565b5f73ffffffffffffffffffffffffffffffffffffffff82169050919050565b5f61095282610929565b9050919050565b61096281610948565b82525050565b5f60208201905061097b5f830184610959565b92915050565b5f80fd5b61098e816108f8565b8114610998575f80fd5b50565b5f813590506109a981610985565b92915050565b5f602082840312156109c4576109c3610981565b5b5f6109d18482850161099b565b91505092915050565b7f4e487b71000000000000000000000000000000000000000000000000000000005f52602160045260245ffd5b60028110610a1857610a176109da565b5b50565b5f819050610a2882610a07565b919050565b5f610a3782610a1b565b9050919050565b610a4781610a2d565b82525050565b5f602082019050610a605f830184610a3e565b92915050565b5f819050919050565b5f610a89610a84610a7f84610929565b610a66565b610929565b9050919050565b5f610a9a82610a6f565b9050919050565b5f610aab82610a90565b9050919050565b610abb81610aa1565b82525050565b5f602082019050610ad45f830184610ab2565b92915050565b5f82825260208201905092915050565b7f4f6e6c79206f776e6572000000000000000000000000000000000000000000005f82015250565b5f610b1e600a83610ada565b9150610b2982610aea565b602082019050919050565b5f6020820190508181035f830152610b4b81610b12565b9050919050565b7f47616d65206e6f74204f766572212121000000000000000000000000000000005f82015250565b5f610b86601083610ada565b9150610b9182610b52565b602082019050919050565b5f6020820190508181035f830152610bb381610b7a565b9050919050565b7f4e6f207265776f726400000000000000000000000000000000000000000000005f82015250565b5f610bee600983610ada565b9150610bf982610bba565b602082019050919050565b5f6020820190508181035f830152610c1b81610be2565b9050919050565b5f604082019050610c355f830185610959565b610c426020830184610901565b9392505050565b5f8115159050919050565b610c5d81610c49565b8114610c67575f80fd5b50565b5f81519050610c7881610c54565b92915050565b5f60208284031215610c9357610c92610981565b5b5f610ca084828501610c6a565b91505092915050565b7f47616d654f7665720000000000000000000000000000000000000000000000005f82015250565b5f610cdd600883610ada565b9150610ce882610ca9565b602082019050919050565b5f6020820190508181035f830152610d0a81610cd1565b9050919050565b7f5f76616c7565206572726f722028313030207e203939392900000000000000005f82015250565b5f610d45601883610ada565b9150610d5082610d11565b602082019050919050565b5f6020820190508181035f830152610d7281610d39565b9050919050565b5f606082019050610d8c5f830186610959565b610d996020830185610959565b610da66040830184610901565b949350505050565b7f5469636b6574205061796d656e74206661696c65642e20417070726f766520665f8201527f6972737400000000000000000000000000000000000000000000000000000000602082015250565b5f610e08602483610ada565b9150610e1382610dae565b604082019050919050565b5f6020820190508181035f830152610e3581610dfc565b9050919050565b7f4e487b71000000000000000000000000000000000000000000000000000000005f52601160045260245ffd5b5f610e73826108f8565b9150610e7e836108f8565b9250828201905080821115610e9657610e95610e3c565b5b9291505056fea2646970667358221220f9b736a4ec8a8dbb902f2eabbea78479f444bfc8c9350af7b53b399e31ebbb9864736f6c63430008140033",
  "immutableReferences": {},
  "source": "// SPDX-License-Identifier:MIT\npragma solidity ^0.8.20;\n\nimport \"@openzeppelin/contracts/token/ERC20/IERC20.sol\";\n\ncontract Baseball {\n    address public owner;\n    IERC20 public token;\n    uint256 public constant GAME_COUNT = 10;\n    uint256 public ticket = 100 * 10 ** 18; //100MTK\n    uint256 public progress;\n    uint256 public reword;\n    uint256 private random;\n\n    enum GameState {\n        playing,\n        gameOver\n    }\n    GameState public gameState;\n    constructor(address tokenAddress) {\n        owner = msg.sender;\n        gameState = GameState.playing;\n        token = IERC20(tokenAddress);\n        random =\n            (uint256(\n                keccak256(\n                    abi.encodePacked(\n                        block.timestamp,\n                        block.prevrandao,\n                        block.number\n                    )\n                )\n            ) % 900) +\n            100;\n    }\n\n    // _value:   \n    //    random \n    function gameStart(uint256 _value) public {\n        require(progress < GAME_COUNT, \"GameOver\");\n        require(gameState == GameState.playing, \"GameOver\");\n        require((_value >= 100) && (_value < 1000), \"_value error (100 ~ 999)\");\n        //    CA => MTK    ?   .\n        bool success = token.transferFrom(msg.sender, address(this), ticket);\n        require(success, \"Ticket Payment failed. Approve first\");\n        //    .\n        //    ?\n        progress += 1;\n        reword += ticket;\n        //     .\n        if (_value == random) {\n            token.transfer(msg.sender, reword);\n            reword = 0;\n            gameState = GameState.gameOver;\n        } else if (progress == GAME_COUNT) {\n            gameState = GameState.gameOver;\n        }\n    }\n\n    function withdrawToOwner() public {\n        require(msg.sender == owner, \"Only owner\");\n        require(\n            gameState == GameState.playing || progress >= GAME_COUNT,\n            \"Game not Over!!!\"\n        );\n        require(reword > 0, \"No reword\");\n\n        token.transfer(owner, reword);\n        reword = 0;\n    }\n    function getReword() public view returns (uint256) {\n        return reword;\n    }\n    function getProgeress() public view returns (uint256) {\n        return progress;\n    }\n    function getPlaying() public view returns (uint256) {\n        return gameState == GameState.playing ? 0 : 1;\n    }\n    function getRandom() public view returns (uint256) {\n        require(msg.sender == owner, \"Only owner\");\n        return random;\n    }\n}\n",
  "sourcePath": "/home/mls/blockchain11/13.blockchain/250508/mytoken-ui/contracts/baseball.sol",
  "compiler": {
    "name": "solc",
    "version": "0.8.20+commit.a1b79de6.Emscripten.clang"
  },
  "schemaVersion": "3.4.16",
  "updatedAt": "2025-05-08T02:44:16.774Z",
  "devdoc": {
    "kind": "dev",
    "methods": {},
    "version": 1
  },
  "userdoc": {
    "kind": "user",
    "methods": {},
    "version": 1
  }
}