{
  "contractName": "Factory",
  "abi": [
    {
      "inputs": [],
      "name": "createDAO",
      "outputs": [],
      "stateMutability": "nonpayable",
      "type": "function"
    },
    {
      "inputs": [],
      "name": "getMyDAOs",
      "outputs": [
        {
          "internalType": "address[]",
          "name": "",
          "type": "address[]"
        }
      ],
      "stateMutability": "view",
      "type": "function"
    },
    {
      "inputs": [
        {
          "internalType": "uint256",
          "name": "index",
          "type": "uint256"
        }
      ],
      "name": "getDAO",
      "outputs": [
        {
          "internalType": "address",
          "name": "",
          "type": "address"
        }
      ],
      "stateMutability": "view",
      "type": "function"
    }
  ],
  "bytecode": "0x608060405234801561000f575f80fd5b50611b248061001d5f395ff3fe608060405234801561000f575f80fd5b506004361061003f575f3560e01c80635a29426c1461004357806374f47189146100735780639caddac214610091575b5f80fd5b61005d6004803603810190610058919061035f565b61009b565b60405161006a91906103c9565b60405180910390f35b61007b610124565b6040516100889190610499565b60405180910390f35b6100996101ea565b005b5f808054905082106100e2576040517f08c379a00000000000000000000000000000000000000000000000000000000081526004016100d990610513565b60405180910390fd5b5f82815481106100f5576100f4610531565b5b905f5260205f20015f9054906101000a900473ffffffffffffffffffffffffffffffffffffffff169050919050565b606060015f3373ffffffffffffffffffffffffffffffffffffffff1673ffffffffffffffffffffffffffffffffffffffff1681526020019081526020015f208054806020026020016040519081016040528092919081815260200182805480156101e057602002820191905f5260205f20905b815f9054906101000a900473ffffffffffffffffffffffffffffffffffffffff1673ffffffffffffffffffffffffffffffffffffffff1681526020019060010190808311610197575b5050505050905090565b5f336040516101f89061031b565b61020291906103c9565b604051809103905ff08015801561021b573d5f803e3d5ffd5b5090505f81908060018154018082558091505060019003905f5260205f20015f9091909190916101000a81548173ffffffffffffffffffffffffffffffffffffffff021916908373ffffffffffffffffffffffffffffffffffffffff16021790555060015f3373ffffffffffffffffffffffffffffffffffffffff1673ffffffffffffffffffffffffffffffffffffffff1681526020019081526020015f2081908060018154018082558091505060019003905f5260205f20015f9091909190916101000a81548173ffffffffffffffffffffffffffffffffffffffff021916908373ffffffffffffffffffffffffffffffffffffffff16021790555050565b6115908061055f83390190565b5f80fd5b5f819050919050565b61033e8161032c565b8114610348575f80fd5b50565b5f8135905061035981610335565b92915050565b5f6020828403121561037457610373610328565b5b5f6103818482850161034b565b91505092915050565b5f73ffffffffffffffffffffffffffffffffffffffff82169050919050565b5f6103b38261038a565b9050919050565b6103c3816103a9565b82525050565b5f6020820190506103dc5f8301846103ba565b92915050565b5f81519050919050565b5f82825260208201905092915050565b5f819050602082019050919050565b610414816103a9565b82525050565b5f610425838361040b565b60208301905092915050565b5f602082019050919050565b5f610447826103e2565b61045181856103ec565b935061045c836103fc565b805f5b8381101561048c578151610473888261041a565b975061047e83610431565b92505060018101905061045f565b5085935050505092915050565b5f6020820190508181035f8301526104b1818461043d565b905092915050565b5f82825260208201905092915050565b7f496e76616c696420696e646578000000000000000000000000000000000000005f82015250565b5f6104fd600d836104b9565b9150610508826104c9565b602082019050919050565b5f6020820190508181035f83015261052a816104f1565b9050919050565b7f4e487b71000000000000000000000000000000000000000000000000000000005f52603260045260245ffdfe60806040525f60015534801562000014575f80fd5b50604051620015903803806200159083398181016040528101906200003a919062000153565b805f806101000a81548173ffffffffffffffffffffffffffffffffffffffff021916908373ffffffffffffffffffffffffffffffffffffffff160217905550600160045f8373ffffffffffffffffffffffffffffffffffffffff1673ffffffffffffffffffffffffffffffffffffffff1681526020019081526020015f205f6101000a81548160ff02191690831515021790555060035f815480929190620000e290620001b9565b91905055505062000205565b5f80fd5b5f73ffffffffffffffffffffffffffffffffffffffff82169050919050565b5f6200011d82620000f2565b9050919050565b6200012f8162000111565b81146200013a575f80fd5b50565b5f815190506200014d8162000124565b92915050565b5f602082840312156200016b576200016a620000ee565b5b5f6200017a848285016200013d565b91505092915050565b7f4e487b71000000000000000000000000000000000000000000000000000000005f52601160045260245ffd5b5f819050919050565b5f620001c582620001b0565b91507fffffffffffffffffffffffffffffffffffffffffffffffffffffffffffffffff8203620001fa57620001f962000183565b5b600182019050919050565b61137d80620002135f395ff3fe608060405234801561000f575f80fd5b5060043610610060575f3560e01c806330326c171461006457806349c2a1a614610097578063923e51d5146100b3578063995e4339146100cf578063c9d27afe14610102578063e13646f01461011e575b5f80fd5b61007e6004803603810190610079919061098e565b61013a565b60405161008e9493929190610a6c565b60405180910390f35b6100b160048036038101906100ac9190610be2565b6101f8565b005b6100cd60048036038101906100c89190610c83565b6102c3565b005b6100e960048036038101906100e4919061098e565b6103c1565b6040516100f99493929190610cae565b60405180910390f35b61011c60048036038101906101179190610d29565b610598565b005b6101386004803603810190610133919061098e565b6107f4565b005b6002602052805f5260405f205f91509050805f01805461015990610d94565b80601f016020809104026020016040519081016040528092919081815260200182805461018590610d94565b80156101d05780601f106101a7576101008083540402835291602001916101d0565b820191905f5260205f20905b8154815290600101906020018083116101b357829003601f168201915b505050505090806001015490806002015490806003015f9054906101000a900460ff16905084565b5f8054906101000a900473ffffffffffffffffffffffffffffffffffffffff1673ffffffffffffffffffffffffffffffffffffffff163373ffffffffffffffffffffffffffffffffffffffff1614610285576040517f08c379a000000000000000000000000000000000000000000000000000000000815260040161027c90610e0e565b60405180910390fd5b5f60025f60015f81548092919061029b90610e59565b9190505581526020019081526020015f20905081815f0190816102be919061103d565b505050565b5f8054906101000a900473ffffffffffffffffffffffffffffffffffffffff1673ffffffffffffffffffffffffffffffffffffffff163373ffffffffffffffffffffffffffffffffffffffff1614610350576040517f08c379a000000000000000000000000000000000000000000000000000000000815260040161034790610e0e565b60405180910390fd5b600160045f8373ffffffffffffffffffffffffffffffffffffffff1673ffffffffffffffffffffffffffffffffffffffff1681526020019081526020015f205f6101000a81548160ff021916908315150217905550600160035f8282546103b7919061110c565b9250508190555050565b60605f806060600154851061040b576040517f08c379a000000000000000000000000000000000000000000000000000000000815260040161040290611189565b60405180910390fd5b5f60025f8781526020019081526020015f209050805f01805461042d90610d94565b80601f016020809104026020016040519081016040528092919081815260200182805461045990610d94565b80156104a45780601f1061047b576101008083540402835291602001916104a4565b820191905f5260205f20905b81548152906001019060200180831161048757829003601f168201915b505050505094508060010154935080600201549250806003015f9054906101000a900460ff1615610557578060020154816001015411610519576040518060400160405280601081526020017f50726f706f73616c2052656a6574656400000000000000000000000000000000815250610550565b6040518060400160405280600f81526020017f50726f706f73616c2070617373656400000000000000000000000000000000008152505b9150610590565b6040518060400160405280601281526020017f566f74696e6720696e2070726f6772657373000000000000000000000000000081525091505b509193509193565b60045f3373ffffffffffffffffffffffffffffffffffffffff1673ffffffffffffffffffffffffffffffffffffffff1681526020019081526020015f205f9054906101000a900460ff16610621576040517f08c379a0000000000000000000000000000000000000000000000000000000008152600401610618906111f1565b60405180910390fd5b6001548210610665576040517f08c379a000000000000000000000000000000000000000000000000000000000815260040161065c90611189565b60405180910390fd5b5f60025f8481526020019081526020015f209050806003015f9054906101000a900460ff16156106ca576040517f08c379a00000000000000000000000000000000000000000000000000000000081526004016106c190611259565b60405180910390fd5b806004015f3373ffffffffffffffffffffffffffffffffffffffff1673ffffffffffffffffffffffffffffffffffffffff1681526020019081526020015f205f9054906101000a900460ff1615610756576040517f08c379a000000000000000000000000000000000000000000000000000000000815260040161074d906112c1565b60405180910390fd5b6001816004015f3373ffffffffffffffffffffffffffffffffffffffff1673ffffffffffffffffffffffffffffffffffffffff1681526020019081526020015f205f6101000a81548160ff02191690831515021790555081156107d3576001816001015f8282546107c7919061110c565b925050819055506107ef565b6001816002015f8282546107e7919061110c565b925050819055505b505050565b5f8054906101000a900473ffffffffffffffffffffffffffffffffffffffff1673ffffffffffffffffffffffffffffffffffffffff163373ffffffffffffffffffffffffffffffffffffffff1614610881576040517f08c379a000000000000000000000000000000000000000000000000000000000815260040161087890610e0e565b60405180910390fd5b60015481106108c5576040517f08c379a00000000000000000000000000000000000000000000000000000000081526004016108bc90611189565b60405180910390fd5b5f60025f8381526020019081526020015f209050806003015f9054906101000a900460ff161561092a576040517f08c379a000000000000000000000000000000000000000000000000000000000815260040161092190611329565b60405180910390fd5b6001816003015f6101000a81548160ff0219169083151502179055505050565b5f604051905090565b5f80fd5b5f80fd5b5f819050919050565b61096d8161095b565b8114610977575f80fd5b50565b5f8135905061098881610964565b92915050565b5f602082840312156109a3576109a2610953565b5b5f6109b08482850161097a565b91505092915050565b5f81519050919050565b5f82825260208201905092915050565b5f5b838110156109f05780820151818401526020810190506109d5565b5f8484015250505050565b5f601f19601f8301169050919050565b5f610a15826109b9565b610a1f81856109c3565b9350610a2f8185602086016109d3565b610a38816109fb565b840191505092915050565b610a4c8161095b565b82525050565b5f8115159050919050565b610a6681610a52565b82525050565b5f6080820190508181035f830152610a848187610a0b565b9050610a936020830186610a43565b610aa06040830185610a43565b610aad6060830184610a5d565b95945050505050565b5f80fd5b5f80fd5b7f4e487b71000000000000000000000000000000000000000000000000000000005f52604160045260245ffd5b610af4826109fb565b810181811067ffffffffffffffff82111715610b1357610b12610abe565b5b80604052505050565b5f610b2561094a565b9050610b318282610aeb565b919050565b5f67ffffffffffffffff821115610b5057610b4f610abe565b5b610b59826109fb565b9050602081019050919050565b828183375f83830152505050565b5f610b86610b8184610b36565b610b1c565b905082815260208101848484011115610ba257610ba1610aba565b5b610bad848285610b66565b509392505050565b5f82601f830112610bc957610bc8610ab6565b5b8135610bd9848260208601610b74565b91505092915050565b5f60208284031215610bf757610bf6610953565b5b5f82013567ffffffffffffffff811115610c1457610c13610957565b5b610c2084828501610bb5565b91505092915050565b5f73ffffffffffffffffffffffffffffffffffffffff82169050919050565b5f610c5282610c29565b9050919050565b610c6281610c48565b8114610c6c575f80fd5b50565b5f81359050610c7d81610c59565b92915050565b5f60208284031215610c9857610c97610953565b5b5f610ca584828501610c6f565b91505092915050565b5f6080820190508181035f830152610cc68187610a0b565b9050610cd56020830186610a43565b610ce26040830185610a43565b8181036060830152610cf48184610a0b565b905095945050505050565b610d0881610a52565b8114610d12575f80fd5b50565b5f81359050610d2381610cff565b92915050565b5f8060408385031215610d3f57610d3e610953565b5b5f610d4c8582860161097a565b9250506020610d5d85828601610d15565b9150509250929050565b7f4e487b71000000000000000000000000000000000000000000000000000000005f52602260045260245ffd5b5f6002820490506001821680610dab57607f821691505b602082108103610dbe57610dbd610d67565b5b50919050565b7f4f6e6c79206368616972706572736f6e20616c6c6f77656400000000000000005f82015250565b5f610df86018836109c3565b9150610e0382610dc4565b602082019050919050565b5f6020820190508181035f830152610e2581610dec565b9050919050565b7f4e487b71000000000000000000000000000000000000000000000000000000005f52601160045260245ffd5b5f610e638261095b565b91507fffffffffffffffffffffffffffffffffffffffffffffffffffffffffffffffff8203610e9557610e94610e2c565b5b600182019050919050565b5f819050815f5260205f209050919050565b5f6020601f8301049050919050565b5f82821b905092915050565b5f60088302610efc7fffffffffffffffffffffffffffffffffffffffffffffffffffffffffffffffff82610ec1565b610f068683610ec1565b95508019841693508086168417925050509392505050565b5f819050919050565b5f610f41610f3c610f378461095b565b610f1e565b61095b565b9050919050565b5f819050919050565b610f5a83610f27565b610f6e610f6682610f48565b848454610ecd565b825550505050565b5f90565b610f82610f76565b610f8d818484610f51565b505050565b5b81811015610fb057610fa55f82610f7a565b600181019050610f93565b5050565b601f821115610ff557610fc681610ea0565b610fcf84610eb2565b81016020851015610fde578190505b610ff2610fea85610eb2565b830182610f92565b50505b505050565b5f82821c905092915050565b5f6110155f1984600802610ffa565b1980831691505092915050565b5f61102d8383611006565b9150826002028217905092915050565b611046826109b9565b67ffffffffffffffff81111561105f5761105e610abe565b5b6110698254610d94565b611074828285610fb4565b5f60209050601f8311600181146110a5575f8415611093578287015190505b61109d8582611022565b865550611104565b601f1984166110b386610ea0565b5f5b828110156110da578489015182556001820191506020850194506020810190506110b5565b868310156110f757848901516110f3601f891682611006565b8355505b6001600288020188555050505b505050505050565b5f6111168261095b565b91506111218361095b565b925082820190508082111561113957611138610e2c565b5b92915050565b7f496e76616c69642070726f706f73616c496400000000000000000000000000005f82015250565b5f6111736012836109c3565b915061117e8261113f565b602082019050919050565b5f6020820190508181035f8301526111a081611167565b9050919050565b7f796f75206e6f74204d656d6265722100000000000000000000000000000000005f82015250565b5f6111db600f836109c3565b91506111e6826111a7565b602082019050919050565b5f6020820190508181035f830152611208816111cf565b9050919050565b7f50726f706f73616c20616c72656164792066696e6973686564000000000000005f82015250565b5f6112436019836109c3565b915061124e8261120f565b602082019050919050565b5f6020820190508181035f83015261127081611237565b9050919050565b7f796f7520416c726561647920766f7465640000000000000000000000000000005f82015250565b5f6112ab6011836109c3565b91506112b682611277565b602082019050919050565b5f6020820190508181035f8301526112d88161129f565b9050919050565b7f416c72656164792066696e6973686564000000000000000000000000000000005f82015250565b5f6113136010836109c3565b915061131e826112df565b602082019050919050565b5f6020820190508181035f83015261134081611307565b905091905056fea26469706673582212209f118803188dcb4030c1f730a39ed9d6136339b1cd96bf2fc4c8405c24685f4f64736f6c63430008140033a2646970667358221220962c88390fe586229721a94b8a80963d09969379be318bc5eaa7bbdc0d39f1d664736f6c63430008140033",
  "immutableReferences": {},
  "source": "// SPDX-License-Identifier: MIT\npragma solidity ^0.8.20;\n\nimport \"./DAO.sol\";\n\ncontract Factory {\n    address[] private deployedDAOs;\n    mapping(address => address[]) private createdBy;\n\n    function createDAO() public {\n        DAO dao = new DAO(msg.sender);\n        deployedDAOs.push(address(dao));\n        createdBy[msg.sender].push(address(dao));\n    }\n\n    function getMyDAOs() public view returns (address[] memory) {\n        return createdBy[msg.sender];\n    }\n\n    function getDAO(uint index) public view returns (address) {\n        require(index < deployedDAOs.length, \"Invalid index\");\n        return deployedDAOs[index];\n    }\n}\n",
  "sourcePath": "/home/wnqudgus1234/blockchain11/13.blockchain/250515/contracts/Factory.sol",
  "compiler": {
    "name": "solc",
    "version": "0.8.20+commit.a1b79de6.Emscripten.clang"
  },
  "schemaVersion": "3.4.16",
  "updatedAt": "2025-05-15T01:53:05.949Z",
  "devdoc": {
    "kind": "dev",
    "methods": {},
    "version": 1
  },
  "userdoc": {
    "kind": "user",
    "methods": {},
    "version": 1
  }
}