{
  "contractName": "Factory",
  "abi": [
    {
      "inputs": [
        {
          "internalType": "address",
          "name": "",
          "type": "address"
        },
        {
          "internalType": "uint256",
          "name": "",
          "type": "uint256"
        }
      ],
      "name": "createdBy",
      "outputs": [
        {
          "internalType": "address",
          "name": "",
          "type": "address"
        }
      ],
      "stateMutability": "view",
      "type": "function"
    },
    {
      "inputs": [
        {
          "internalType": "uint256",
          "name": "",
          "type": "uint256"
        }
      ],
      "name": "deployedDAOs",
      "outputs": [
        {
          "internalType": "address",
          "name": "",
          "type": "address"
        }
      ],
      "stateMutability": "view",
      "type": "function"
    },
    {
      "inputs": [],
      "name": "createDAO",
      "outputs": [],
      "stateMutability": "nonpayable",
      "type": "function"
    },
    {
      "inputs": [],
      "name": "getMyDAOs",
      "outputs": [
        {
          "internalType": "address[]",
          "name": "",
          "type": "address[]"
        }
      ],
      "stateMutability": "view",
      "type": "function"
    },
    {
      "inputs": [
        {
          "internalType": "uint256",
          "name": "index",
          "type": "uint256"
        }
      ],
      "name": "getDAO",
      "outputs": [
        {
          "internalType": "address",
          "name": "",
          "type": "address"
        }
      ],
      "stateMutability": "view",
      "type": "function"
    }
  ],
  "bytecode": "0x608060405234801561000f575f80fd5b50611bf98061001d5f395ff3fe608060405234801561000f575f80fd5b5060043610610055575f3560e01c806319e0b288146100595780635a29426c1461008957806374f47189146100b95780639caddac2146100d7578063f80364c7146100e1575b5f80fd5b610073600480360381019061006e9190610457565b610111565b60405161008091906104c1565b60405180910390f35b6100a3600480360381019061009e9190610457565b61014b565b6040516100b091906104c1565b60405180910390f35b6100c16101d4565b6040516100ce9190610591565b60405180910390f35b6100df61029a565b005b6100fb60048036038101906100f691906105db565b6103cb565b60405161010891906104c1565b60405180910390f35b5f818154811061011f575f80fd5b905f5260205f20015f915054906101000a900473ffffffffffffffffffffffffffffffffffffffff1681565b5f80805490508210610192576040517f08c379a000000000000000000000000000000000000000000000000000000000815260040161018990610673565b60405180910390fd5b5f82815481106101a5576101a4610691565b5b905f5260205f20015f9054906101000a900473ffffffffffffffffffffffffffffffffffffffff169050919050565b606060015f3373ffffffffffffffffffffffffffffffffffffffff1673ffffffffffffffffffffffffffffffffffffffff1681526020019081526020015f2080548060200260200160405190810160405280929190818152602001828054801561029057602002820191905f5260205f20905b815f9054906101000a900473ffffffffffffffffffffffffffffffffffffffff1673ffffffffffffffffffffffffffffffffffffffff1681526020019060010190808311610247575b5050505050905090565b5f336040516102a890610413565b6102b291906104c1565b604051809103905ff0801580156102cb573d5f803e3d5ffd5b5090505f81908060018154018082558091505060019003905f5260205f20015f9091909190916101000a81548173ffffffffffffffffffffffffffffffffffffffff021916908373ffffffffffffffffffffffffffffffffffffffff16021790555060015f3373ffffffffffffffffffffffffffffffffffffffff1673ffffffffffffffffffffffffffffffffffffffff1681526020019081526020015f2081908060018154018082558091505060019003905f5260205f20015f9091909190916101000a81548173ffffffffffffffffffffffffffffffffffffffff021916908373ffffffffffffffffffffffffffffffffffffffff16021790555050565b6001602052815f5260405f2081815481106103e4575f80fd5b905f5260205f20015f915091509054906101000a900473ffffffffffffffffffffffffffffffffffffffff1681565b611505806106bf83390190565b5f80fd5b5f819050919050565b61043681610424565b8114610440575f80fd5b50565b5f813590506104518161042d565b92915050565b5f6020828403121561046c5761046b610420565b5b5f61047984828501610443565b91505092915050565b5f73ffffffffffffffffffffffffffffffffffffffff82169050919050565b5f6104ab82610482565b9050919050565b6104bb816104a1565b82525050565b5f6020820190506104d45f8301846104b2565b92915050565b5f81519050919050565b5f82825260208201905092915050565b5f819050602082019050919050565b61050c816104a1565b82525050565b5f61051d8383610503565b60208301905092915050565b5f602082019050919050565b5f61053f826104da565b61054981856104e4565b9350610554836104f4565b805f5b8381101561058457815161056b8882610512565b975061057683610529565b925050600181019050610557565b5085935050505092915050565b5f6020820190508181035f8301526105a98184610535565b905092915050565b6105ba816104a1565b81146105c4575f80fd5b50565b5f813590506105d5816105b1565b92915050565b5f80604083850312156105f1576105f0610420565b5b5f6105fe858286016105c7565b925050602061060f85828601610443565b9150509250929050565b5f82825260208201905092915050565b7f496e62616c696420696e646578000000000000000000000000000000000000005f82015250565b5f61065d600d83610619565b915061066882610629565b602082019050919050565b5f6020820190508181035f83015261068a81610651565b9050919050565b7f4e487b71000000000000000000000000000000000000000000000000000000005f52603260045260245ffdfe60806040525f60015534801562000014575f80fd5b50604051620015053803806200150583398181016040528101906200003a919062000153565b805f806101000a81548173ffffffffffffffffffffffffffffffffffffffff021916908373ffffffffffffffffffffffffffffffffffffffff160217905550600160045f8373ffffffffffffffffffffffffffffffffffffffff1673ffffffffffffffffffffffffffffffffffffffff1681526020019081526020015f205f6101000a81548160ff02191690831515021790555060035f815480929190620000e290620001b9565b91905055505062000205565b5f80fd5b5f73ffffffffffffffffffffffffffffffffffffffff82169050919050565b5f6200011d82620000f2565b9050919050565b6200012f8162000111565b81146200013a575f80fd5b50565b5f815190506200014d8162000124565b92915050565b5f602082840312156200016b576200016a620000ee565b5b5f6200017a848285016200013d565b91505092915050565b7f4e487b71000000000000000000000000000000000000000000000000000000005f52601160045260245ffd5b5f819050919050565b5f620001c582620001b0565b91507fffffffffffffffffffffffffffffffffffffffffffffffffffffffffffffffff8203620001fa57620001f962000183565b5b600182019050919050565b6112f280620002135f395ff3fe608060405234801561000f575f80fd5b5060043610610060575f3560e01c806330326c171461006457806349c2a1a614610097578063923e51d5146100b3578063995e4339146100cf578063c9d27afe14610102578063e13646f01461011e575b5f80fd5b61007e60048036038101906100799190610903565b61013a565b60405161008e94939291906109e1565b60405180910390f35b6100b160048036038101906100ac9190610b57565b6101f8565b005b6100cd60048036038101906100c89190610bf8565b6102c3565b005b6100e960048036038101906100e49190610903565b6103bf565b6040516100f99493929190610c23565b60405180910390f35b61011c60048036038101906101179190610c9e565b610596565b005b61013860048036038101906101339190610903565b610769565b005b6002602052805f5260405f205f91509050805f01805461015990610d09565b80601f016020809104026020016040519081016040528092919081815260200182805461018590610d09565b80156101d05780601f106101a7576101008083540402835291602001916101d0565b820191905f5260205f20905b8154815290600101906020018083116101b357829003601f168201915b505050505090806001015490806002015490806003015f9054906101000a900460ff16905084565b5f8054906101000a900473ffffffffffffffffffffffffffffffffffffffff1673ffffffffffffffffffffffffffffffffffffffff163373ffffffffffffffffffffffffffffffffffffffff1614610285576040517f08c379a000000000000000000000000000000000000000000000000000000000815260040161027c90610d83565b60405180910390fd5b5f60025f60015f81548092919061029b90610dce565b9190505581526020019081526020015f20905081815f0190816102be9190610fb2565b505050565b5f8054906101000a900473ffffffffffffffffffffffffffffffffffffffff1673ffffffffffffffffffffffffffffffffffffffff163373ffffffffffffffffffffffffffffffffffffffff1614610350576040517f08c379a000000000000000000000000000000000000000000000000000000000815260040161034790610d83565b60405180910390fd5b600160045f8373ffffffffffffffffffffffffffffffffffffffff1673ffffffffffffffffffffffffffffffffffffffff1681526020019081526020015f205f6101000a81548160ff02191690831515021790555060035f8154809291906103b790610dce565b919050555050565b60605f8060606001548510610409576040517f08c379a0000000000000000000000000000000000000000000000000000000008152600401610400906110cb565b60405180910390fd5b5f60025f8781526020019081526020015f209050805f01805461042b90610d09565b80601f016020809104026020016040519081016040528092919081815260200182805461045790610d09565b80156104a25780601f10610479576101008083540402835291602001916104a2565b820191905f5260205f20905b81548152906001019060200180831161048557829003601f168201915b505050505094508060010154935080600201549250806003015f9054906101000a900460ff1615610555578060020154816001015411610517576040518060400160405280601081526020017f70726f706f73616c2052656a657465640000000000000000000000000000000081525061054e565b6040518060400160405280600f81526020017f70726f706f73616c2070617373656400000000000000000000000000000000008152505b915061058e565b6040518060400160405280601281526020017f566f74696e6720696e2070726f6765727373000000000000000000000000000081525091505b509193509193565b60015482106105da576040517f08c379a00000000000000000000000000000000000000000000000000000000081526004016105d190611133565b60405180910390fd5b5f60025f8481526020019081526020015f209050806003015f9054906101000a900460ff161561063f576040517f08c379a00000000000000000000000000000000000000000000000000000000081526004016106369061119b565b60405180910390fd5b806004015f3373ffffffffffffffffffffffffffffffffffffffff1673ffffffffffffffffffffffffffffffffffffffff1681526020019081526020015f205f9054906101000a900460ff16156106cb576040517f08c379a00000000000000000000000000000000000000000000000000000000081526004016106c290611203565b60405180910390fd5b6001816004015f3373ffffffffffffffffffffffffffffffffffffffff1673ffffffffffffffffffffffffffffffffffffffff1681526020019081526020015f205f6101000a81548160ff0219169083151502179055508115610748576001816001015f82825461073c9190611221565b92505081905550610764565b6001816002015f82825461075c9190611221565b925050819055505b505050565b5f8054906101000a900473ffffffffffffffffffffffffffffffffffffffff1673ffffffffffffffffffffffffffffffffffffffff163373ffffffffffffffffffffffffffffffffffffffff16146107f6576040517f08c379a00000000000000000000000000000000000000000000000000000000081526004016107ed90610d83565b60405180910390fd5b600154811061083a576040517f08c379a0000000000000000000000000000000000000000000000000000000008152600401610831906110cb565b60405180910390fd5b5f60025f8381526020019081526020015f209050806003015f9054906101000a900460ff161561089f576040517f08c379a00000000000000000000000000000000000000000000000000000000081526004016108969061129e565b60405180910390fd5b6001816003015f6101000a81548160ff0219169083151502179055505050565b5f604051905090565b5f80fd5b5f80fd5b5f819050919050565b6108e2816108d0565b81146108ec575f80fd5b50565b5f813590506108fd816108d9565b92915050565b5f60208284031215610918576109176108c8565b5b5f610925848285016108ef565b91505092915050565b5f81519050919050565b5f82825260208201905092915050565b5f5b8381101561096557808201518184015260208101905061094a565b5f8484015250505050565b5f601f19601f8301169050919050565b5f61098a8261092e565b6109948185610938565b93506109a4818560208601610948565b6109ad81610970565b840191505092915050565b6109c1816108d0565b82525050565b5f8115159050919050565b6109db816109c7565b82525050565b5f6080820190508181035f8301526109f98187610980565b9050610a0860208301866109b8565b610a1560408301856109b8565b610a2260608301846109d2565b95945050505050565b5f80fd5b5f80fd5b7f4e487b71000000000000000000000000000000000000000000000000000000005f52604160045260245ffd5b610a6982610970565b810181811067ffffffffffffffff82111715610a8857610a87610a33565b5b80604052505050565b5f610a9a6108bf565b9050610aa68282610a60565b919050565b5f67ffffffffffffffff821115610ac557610ac4610a33565b5b610ace82610970565b9050602081019050919050565b828183375f83830152505050565b5f610afb610af684610aab565b610a91565b905082815260208101848484011115610b1757610b16610a2f565b5b610b22848285610adb565b509392505050565b5f82601f830112610b3e57610b3d610a2b565b5b8135610b4e848260208601610ae9565b91505092915050565b5f60208284031215610b6c57610b6b6108c8565b5b5f82013567ffffffffffffffff811115610b8957610b886108cc565b5b610b9584828501610b2a565b91505092915050565b5f73ffffffffffffffffffffffffffffffffffffffff82169050919050565b5f610bc782610b9e565b9050919050565b610bd781610bbd565b8114610be1575f80fd5b50565b5f81359050610bf281610bce565b92915050565b5f60208284031215610c0d57610c0c6108c8565b5b5f610c1a84828501610be4565b91505092915050565b5f6080820190508181035f830152610c3b8187610980565b9050610c4a60208301866109b8565b610c5760408301856109b8565b8181036060830152610c698184610980565b905095945050505050565b610c7d816109c7565b8114610c87575f80fd5b50565b5f81359050610c9881610c74565b92915050565b5f8060408385031215610cb457610cb36108c8565b5b5f610cc1858286016108ef565b9250506020610cd285828601610c8a565b9150509250929050565b7f4e487b71000000000000000000000000000000000000000000000000000000005f52602260045260245ffd5b5f6002820490506001821680610d2057607f821691505b602082108103610d3357610d32610cdc565b5b50919050565b7f4f6e6c79206368616972706572736f6e20616c6c6f77656400000000000000005f82015250565b5f610d6d601883610938565b9150610d7882610d39565b602082019050919050565b5f6020820190508181035f830152610d9a81610d61565b9050919050565b7f4e487b71000000000000000000000000000000000000000000000000000000005f52601160045260245ffd5b5f610dd8826108d0565b91507fffffffffffffffffffffffffffffffffffffffffffffffffffffffffffffffff8203610e0a57610e09610da1565b5b600182019050919050565b5f819050815f5260205f209050919050565b5f6020601f8301049050919050565b5f82821b905092915050565b5f60088302610e717fffffffffffffffffffffffffffffffffffffffffffffffffffffffffffffffff82610e36565b610e7b8683610e36565b95508019841693508086168417925050509392505050565b5f819050919050565b5f610eb6610eb1610eac846108d0565b610e93565b6108d0565b9050919050565b5f819050919050565b610ecf83610e9c565b610ee3610edb82610ebd565b848454610e42565b825550505050565b5f90565b610ef7610eeb565b610f02818484610ec6565b505050565b5b81811015610f2557610f1a5f82610eef565b600181019050610f08565b5050565b601f821115610f6a57610f3b81610e15565b610f4484610e27565b81016020851015610f53578190505b610f67610f5f85610e27565b830182610f07565b50505b505050565b5f82821c905092915050565b5f610f8a5f1984600802610f6f565b1980831691505092915050565b5f610fa28383610f7b565b9150826002028217905092915050565b610fbb8261092e565b67ffffffffffffffff811115610fd457610fd3610a33565b5b610fde8254610d09565b610fe9828285610f29565b5f60209050601f83116001811461101a575f8415611008578287015190505b6110128582610f97565b865550611079565b601f19841661102886610e15565b5f5b8281101561104f5784890151825560018201915060208501945060208101905061102a565b8683101561106c5784890151611068601f891682610f7b565b8355505b6001600288020188555050505b505050505050565b7f496e62616c69642070726f706f73616c496400000000000000000000000000005f82015250565b5f6110b5601283610938565b91506110c082611081565b602082019050919050565b5f6020820190508181035f8301526110e2816110a9565b9050919050565b7f496e76616c69642070726f706f73616c496400000000000000000000000000005f82015250565b5f61111d601283610938565b9150611128826110e9565b602082019050919050565b5f6020820190508181035f83015261114a81611111565b9050919050565b7f70726f706f73616c20616c72656164792066696e6973686564000000000000005f82015250565b5f611185601983610938565b915061119082611151565b602082019050919050565b5f6020820190508181035f8301526111b281611179565b9050919050565b7f796f6520416c726561647920766f7465640000000000000000000000000000005f82015250565b5f6111ed601183610938565b91506111f8826111b9565b602082019050919050565b5f6020820190508181035f83015261121a816111e1565b9050919050565b5f61122b826108d0565b9150611236836108d0565b925082820190508082111561124e5761124d610da1565b5b92915050565b7f416c72656164792066696e6973686564000000000000000000000000000000005f82015250565b5f611288601083610938565b915061129382611254565b602082019050919050565b5f6020820190508181035f8301526112b58161127c565b905091905056fea264697066735822122089d6a32f81e4d211c3a43686e3eef0c1eea327c73c67114948ca023e844acc0164736f6c63430008140033a2646970667358221220e8688fb6cb8326641c19f8dbe51a06c9eef4a2bc43d02ecb1a4801baf40a580464736f6c63430008140033",
  "immutableReferences": {},
  "source": "// SPDX-License-Identifier: MIT\npragma solidity ^0.8.20;\n\nimport \"./DAO.sol\";\n\ncontract Factory {\n    //  DAO     \n    address[] public deployedDAOs;\n    //  EOA    => CA\n    mapping(address => address[]) public createdBy;\n\n    function createDAO() public {\n        DAO dao = new DAO(msg.sender);\n        deployedDAOs.push(address(dao)); //10 \n        createdBy[msg.sender].push(address(dao));\n    }\n    function getMyDAOs() public view returns (address[] memory) {\n        return createdBy[msg.sender];\n    }\n    function getDAO(uint index) public view returns (address) {\n        require(index < deployedDAOs.length, \"Inbalid index\");\n        return deployedDAOs[index];\n    }\n}\n",
  "sourcePath": "/home/mls/blockchain11/13.blockchain/250515/contracts/Factory.sol",
  "compiler": {
    "name": "solc",
    "version": "0.8.20+commit.a1b79de6.Emscripten.clang"
  },
  "schemaVersion": "3.4.16",
  "updatedAt": "2025-05-15T01:55:54.830Z",
  "devdoc": {
    "kind": "dev",
    "methods": {},
    "version": 1
  },
  "userdoc": {
    "kind": "user",
    "methods": {},
    "version": 1
  }
}