{
  "contractName": "board",
  "abi": [
    {
      "inputs": [
        {
          "internalType": "address",
          "name": "token_20address",
          "type": "address"
        },
        {
          "internalType": "address",
          "name": "token_1155address",
          "type": "address"
        }
      ],
      "stateMutability": "nonpayable",
      "type": "constructor"
    },
    {
      "anonymous": false,
      "inputs": [
        {
          "indexed": true,
          "internalType": "address",
          "name": "user",
          "type": "address"
        },
        {
          "indexed": false,
          "internalType": "uint256",
          "name": "badgeId",
          "type": "uint256"
        },
        {
          "indexed": false,
          "internalType": "uint256",
          "name": "amount",
          "type": "uint256"
        }
      ],
      "name": "BadgeIssued",
      "type": "event"
    },
    {
      "inputs": [],
      "name": "Admin",
      "outputs": [
        {
          "internalType": "address",
          "name": "",
          "type": "address"
        }
      ],
      "stateMutability": "view",
      "type": "function"
    },
    {
      "inputs": [
        {
          "internalType": "address",
          "name": "",
          "type": "address"
        }
      ],
      "name": "isUser",
      "outputs": [
        {
          "internalType": "bool",
          "name": "",
          "type": "bool"
        }
      ],
      "stateMutability": "view",
      "type": "function"
    },
    {
      "inputs": [],
      "name": "owner",
      "outputs": [
        {
          "internalType": "address",
          "name": "",
          "type": "address"
        }
      ],
      "stateMutability": "view",
      "type": "function"
    },
    {
      "inputs": [
        {
          "internalType": "address",
          "name": "",
          "type": "address"
        }
      ],
      "name": "postCount",
      "outputs": [
        {
          "internalType": "uint256",
          "name": "",
          "type": "uint256"
        }
      ],
      "stateMutability": "view",
      "type": "function"
    },
    {
      "inputs": [
        {
          "internalType": "address",
          "name": "",
          "type": "address"
        }
      ],
      "name": "rewardTotal",
      "outputs": [
        {
          "internalType": "uint256",
          "name": "",
          "type": "uint256"
        }
      ],
      "stateMutability": "view",
      "type": "function"
    },
    {
      "inputs": [],
      "name": "token_1155",
      "outputs": [
        {
          "internalType": "contract ERC_1155",
          "name": "",
          "type": "address"
        }
      ],
      "stateMutability": "view",
      "type": "function"
    },
    {
      "inputs": [],
      "name": "token_20",
      "outputs": [
        {
          "internalType": "contract ERC_20",
          "name": "",
          "type": "address"
        }
      ],
      "stateMutability": "view",
      "type": "function"
    },
    {
      "inputs": [
        {
          "internalType": "address",
          "name": "_member",
          "type": "address"
        }
      ],
      "name": "memberRegistration",
      "outputs": [
        {
          "internalType": "bool",
          "name": "",
          "type": "bool"
        }
      ],
      "stateMutability": "nonpayable",
      "type": "function"
    },
    {
      "inputs": [
        {
          "internalType": "uint256",
          "name": "value",
          "type": "uint256"
        },
        {
          "internalType": "string",
          "name": "title",
          "type": "string"
        },
        {
          "internalType": "string",
          "name": "content",
          "type": "string"
        }
      ],
      "name": "CAtransfer",
      "outputs": [],
      "stateMutability": "payable",
      "type": "function"
    },
    {
      "inputs": [],
      "name": "getpostCount",
      "outputs": [
        {
          "internalType": "uint256",
          "name": "",
          "type": "uint256"
        }
      ],
      "stateMutability": "view",
      "type": "function"
    },
    {
      "inputs": [
        {
          "internalType": "address",
          "name": "userAddress",
          "type": "address"
        }
      ],
      "name": "viewClass",
      "outputs": [
        {
          "internalType": "string",
          "name": "",
          "type": "string"
        }
      ],
      "stateMutability": "view",
      "type": "function"
    },
    {
      "inputs": [],
      "name": "getuser",
      "outputs": [
        {
          "internalType": "address[]",
          "name": "",
          "type": "address[]"
        }
      ],
      "stateMutability": "view",
      "type": "function"
    },
    {
      "inputs": [],
      "name": "getAllPosts",
      "outputs": [
        {
          "components": [
            {
              "internalType": "string",
              "name": "title",
              "type": "string"
            },
            {
              "internalType": "string",
              "name": "content",
              "type": "string"
            },
            {
              "internalType": "address",
              "name": "writer",
              "type": "address"
            },
            {
              "internalType": "uint256",
              "name": "timestamp",
              "type": "uint256"
            }
          ],
          "internalType": "struct board.Post[]",
          "name": "",
          "type": "tuple[]"
        }
      ],
      "stateMutability": "view",
      "type": "function"
    },
    {
      "inputs": [],
      "name": "getrewardTotal",
      "outputs": [
        {
          "internalType": "uint256",
          "name": "",
          "type": "uint256"
        }
      ],
      "stateMutability": "view",
      "type": "function"
    },
    {
      "inputs": [
        {
          "internalType": "address",
          "name": "_address",
          "type": "address"
        }
      ],
      "name": "getBadgeCounts",
      "outputs": [
        {
          "internalType": "uint256[4]",
          "name": "",
          "type": "uint256[4]"
        }
      ],
      "stateMutability": "view",
      "type": "function"
    },
    {
      "inputs": [],
      "name": "isMember",
      "outputs": [
        {
          "internalType": "bool",
          "name": "",
          "type": "bool"
        }
      ],
      "stateMutability": "view",
      "type": "function"
    }
  ],
  "bytecode": "0x608060405234801562000010575f80fd5b5060405162003046380380620030468339818101604052810190620000369190620002d9565b3360025f6101000a81548173ffffffffffffffffffffffffffffffffffffffff021916908373ffffffffffffffffffffffffffffffffffffffff1602179055503360035f6101000a81548173ffffffffffffffffffffffffffffffffffffffff021916908373ffffffffffffffffffffffffffffffffffffffff160217905550815f806101000a81548173ffffffffffffffffffffffffffffffffffffffff021916908373ffffffffffffffffffffffffffffffffffffffff1602179055508060015f6101000a81548173ffffffffffffffffffffffffffffffffffffffff021916908373ffffffffffffffffffffffffffffffffffffffff1602179055505f8054906101000a900473ffffffffffffffffffffffffffffffffffffffff1673ffffffffffffffffffffffffffffffffffffffff166327c948ec306040518263ffffffff1660e01b81526004016200018f91906200032f565b5f604051808303815f87803b158015620001a7575f80fd5b505af1158015620001ba573d5f803e3d5ffd5b5050505060015f9054906101000a900473ffffffffffffffffffffffffffffffffffffffff1673ffffffffffffffffffffffffffffffffffffffff1663ddcd6d3f3060025f9054906101000a900473ffffffffffffffffffffffffffffffffffffffff166040518363ffffffff1660e01b81526004016200023d9291906200034a565b5f604051808303815f87803b15801562000255575f80fd5b505af115801562000268573d5f803e3d5ffd5b50505050505062000375565b5f80fd5b5f73ffffffffffffffffffffffffffffffffffffffff82169050919050565b5f620002a38262000278565b9050919050565b620002b58162000297565b8114620002c0575f80fd5b50565b5f81519050620002d381620002aa565b92915050565b5f8060408385031215620002f257620002f162000274565b5b5f6200030185828601620002c3565b92505060206200031485828601620002c3565b9150509250929050565b620003298162000297565b82525050565b5f602082019050620003445f8301846200031e565b92915050565b5f6040820190506200035f5f8301856200031e565b6200036e60208301846200031e565b9392505050565b612cc380620003835f395ff3fe6080604052600436106100f2575f3560e01c80639a949f4e11610089578063d02982cf11610058578063d02982cf14610328578063e7f1920114610352578063f03afc711461038e578063ff1b636d146103ca576100f2565b80639a949f4e146102805780639be5d1e2146102aa578063a807caa8146102d4578063cff8fd69146102fe576100f2565b80635b1d7b1f116100c55780635b1d7b1f146101a25780638614b0b8146101de5780638da5cb5b1461021a57806394ca143d14610244576100f2565b806315793ed6146100f65780632c43290e14610120578063305611001461013c5780634209fff114610166575b5f80fd5b348015610101575f80fd5b5061010a6103f4565b6040516101179190611a53565b60405180910390f35b61013a60048036038101906101359190611be3565b610438565b005b348015610147575f80fd5b506101506106ec565b60405161015d9190611e55565b60405180910390f35b348015610171575f80fd5b5061018c60048036038101906101879190611e9f565b610955565b6040516101999190611ee4565b60405180910390f35b3480156101ad575f80fd5b506101c860048036038101906101c39190611e9f565b610972565b6040516101d59190611ee4565b60405180910390f35b3480156101e9575f80fd5b5061020460048036038101906101ff9190611e9f565b610a60565b6040516102119190611a53565b60405180910390f35b348015610225575f80fd5b5061022e610a75565b60405161023b9190611f0c565b60405180910390f35b34801561024f575f80fd5b5061026a60048036038101906102659190611e9f565b610a9a565b6040516102779190611f6d565b60405180910390f35b34801561028b575f80fd5b50610294610c8e565b6040516102a19190611fe8565b60405180910390f35b3480156102b5575f80fd5b506102be610cb1565b6040516102cb9190612021565b60405180910390f35b3480156102df575f80fd5b506102e8610cd6565b6040516102f59190611a53565b60405180910390f35b348015610309575f80fd5b50610312610d1a565b60405161031f91906120e2565b60405180910390f35b348015610333575f80fd5b5061033c610e34565b6040516103499190611ee4565b60405180910390f35b34801561035d575f80fd5b5061037860048036038101906103739190611e9f565b610e84565b6040516103859190612198565b60405180910390f35b348015610399575f80fd5b506103b460048036038101906103af9190611e9f565b610fb5565b6040516103c19190611a53565b60405180910390f35b3480156103d5575f80fd5b506103de610fca565b6040516103eb9190611f0c565b60405180910390f35b5f60045f3373ffffffffffffffffffffffffffffffffffffffff1673ffffffffffffffffffffffffffffffffffffffff1681526020019081526020015f2054905090565b6706f05b59d3b200003414610482576040517f08c379a0000000000000000000000000000000000000000000000000000000008152600401610479906121fb565b60405180910390fd5b825f8054906101000a900473ffffffffffffffffffffffffffffffffffffffff1673ffffffffffffffffffffffffffffffffffffffff166370a0823160025f9054906101000a900473ffffffffffffffffffffffffffffffffffffffff166040518263ffffffff1660e01b81526004016104fc9190611f0c565b602060405180830381865afa158015610517573d5f803e3d5ffd5b505050506040513d601f19601f8201168201806040525081019061053b919061222d565b101561057c576040517f08c379a0000000000000000000000000000000000000000000000000000000008152600401610573906122a2565b60405180910390fd5b825f8054906101000a900473ffffffffffffffffffffffffffffffffffffffff1673ffffffffffffffffffffffffffffffffffffffff1663dd62ed3e60025f9054906101000a900473ffffffffffffffffffffffffffffffffffffffff16306040518363ffffffff1660e01b81526004016105f89291906122c0565b602060405180830381865afa158015610613573d5f803e3d5ffd5b505050506040513d601f19601f82011682018060405250810190610637919061222d565b1015610678576040517f08c379a000000000000000000000000000000000000000000000000000000000815260040161066f90612331565b60405180910390fd5b6106828282610fef565b60025f9054906101000a900473ffffffffffffffffffffffffffffffffffffffff1673ffffffffffffffffffffffffffffffffffffffff166108fc3490811502906040515f60405180830381858888f193505050501580156106e6573d5f803e3d5ffd5b50505050565b606060035f9054906101000a900473ffffffffffffffffffffffffffffffffffffffff1673ffffffffffffffffffffffffffffffffffffffff163373ffffffffffffffffffffffffffffffffffffffff161461077d576040517f08c379a000000000000000000000000000000000000000000000000000000000815260040161077490612399565b60405180910390fd5b6009805480602002602001604051908101604052809291908181526020015f905b8282101561094c578382905f5260205f2090600402016040518060800160405290815f820180546107ce906123e4565b80601f01602080910402602001604051908101604052809291908181526020018280546107fa906123e4565b80156108455780601f1061081c57610100808354040283529160200191610845565b820191905f5260205f20905b81548152906001019060200180831161082857829003601f168201915b5050505050815260200160018201805461085e906123e4565b80601f016020809104026020016040519081016040528092919081815260200182805461088a906123e4565b80156108d55780601f106108ac576101008083540402835291602001916108d5565b820191905f5260205f20905b8154815290600101906020018083116108b857829003601f168201915b50505050508152602001600282015f9054906101000a900473ffffffffffffffffffffffffffffffffffffffff1673ffffffffffffffffffffffffffffffffffffffff1673ffffffffffffffffffffffffffffffffffffffff1681526020016003820154815250508152602001906001019061079e565b50505050905090565b6006602052805f5260405f205f915054906101000a900460ff1681565b5f60035f9054906101000a900473ffffffffffffffffffffffffffffffffffffffff1673ffffffffffffffffffffffffffffffffffffffff163373ffffffffffffffffffffffffffffffffffffffff1614610a02576040517f08c379a00000000000000000000000000000000000000000000000000000000081526004016109f990612399565b60405180910390fd5b600160085f8473ffffffffffffffffffffffffffffffffffffffff1673ffffffffffffffffffffffffffffffffffffffff1681526020019081526020015f205f6101000a81548160ff02191690831515021790555060019050919050565b6004602052805f5260405f205f915090505481565b60025f9054906101000a900473ffffffffffffffffffffffffffffffffffffffff1681565b60605f60015f9054906101000a900473ffffffffffffffffffffffffffffffffffffffff1673ffffffffffffffffffffffffffffffffffffffff16630cd1bbe3846040518263ffffffff1660e01b8152600401610af79190611f0c565b602060405180830381865afa158015610b12573d5f803e3d5ffd5b505050506040513d601f19601f82011682018060405250810190610b36919061222d565b90505f8103610b7d576040518060400160405280600681526020017f4e6f726d616c0000000000000000000000000000000000000000000000000000815250915050610c89565b60018103610bc3576040518060400160405280600481526020017f474f4f4400000000000000000000000000000000000000000000000000000000815250915050610c89565b60028103610c09576040518060400160405280600481526020017f4245535400000000000000000000000000000000000000000000000000000000815250915050610c89565b60038103610c4f576040518060400160405280600981526020017f455843454c4c454e540000000000000000000000000000000000000000000000815250915050610c89565b6040518060400160405280600681526020017f4e6f726d616c00000000000000000000000000000000000000000000000000008152509150505b919050565b5f8054906101000a900473ffffffffffffffffffffffffffffffffffffffff1681565b60015f9054906101000a900473ffffffffffffffffffffffffffffffffffffffff1681565b5f60055f3373ffffffffffffffffffffffffffffffffffffffff1673ffffffffffffffffffffffffffffffffffffffff1681526020019081526020015f2054905090565b606060035f9054906101000a900473ffffffffffffffffffffffffffffffffffffffff1673ffffffffffffffffffffffffffffffffffffffff163373ffffffffffffffffffffffffffffffffffffffff1614610dab576040517f08c379a0000000000000000000000000000000000000000000000000000000008152600401610da290612399565b60405180910390fd5b6007805480602002602001604051908101604052809291908181526020018280548015610e2a57602002820191905f5260205f20905b815f9054906101000a900473ffffffffffffffffffffffffffffffffffffffff1673ffffffffffffffffffffffffffffffffffffffff1681526020019060010190808311610de1575b5050505050905090565b5f60085f3373ffffffffffffffffffffffffffffffffffffffff1673ffffffffffffffffffffffffffffffffffffffff1681526020019081526020015f205f9054906101000a900460ff16905090565b610e8c611a19565b60085f3373ffffffffffffffffffffffffffffffffffffffff1673ffffffffffffffffffffffffffffffffffffffff1681526020019081526020015f205f9054906101000a900460ff16610f15576040517f08c379a0000000000000000000000000000000000000000000000000000000008152600401610f0c9061245e565b60405180910390fd5b60015f9054906101000a900473ffffffffffffffffffffffffffffffffffffffff1673ffffffffffffffffffffffffffffffffffffffff1663e7f19201836040518263ffffffff1660e01b8152600401610f6f9190611f0c565b608060405180830381865afa158015610f8a573d5f803e3d5ffd5b505050506040513d601f19601f82011682018060405250810190610fae919061252e565b9050919050565b6005602052805f5260405f205f915090505481565b60035f9054906101000a900473ffffffffffffffffffffffffffffffffffffffff1681565b5f60405180608001604052808481526020018381526020013373ffffffffffffffffffffffffffffffffffffffff168152602001428152509050600981908060018154018082558091505060019003905f5260205f2090600402015f909190919091505f820151815f01908161106591906126ed565b50602082015181600101908161107b91906126ed565b506040820151816002015f6101000a81548173ffffffffffffffffffffffffffffffffffffffff021916908373ffffffffffffffffffffffffffffffffffffffff160217905550606082015181600301555050600160045f3373ffffffffffffffffffffffffffffffffffffffff1673ffffffffffffffffffffffffffffffffffffffff1681526020019081526020015f205f82825461111b91906127e9565b9250508190555060065f3373ffffffffffffffffffffffffffffffffffffffff1673ffffffffffffffffffffffffffffffffffffffff1681526020019081526020015f205f9054906101000a900460ff1661122657600733908060018154018082558091505060019003905f5260205f20015f9091909190916101000a81548173ffffffffffffffffffffffffffffffffffffffff021916908373ffffffffffffffffffffffffffffffffffffffff160217905550600160065f3373ffffffffffffffffffffffffffffffffffffffff1673ffffffffffffffffffffffffffffffffffffffff1681526020019081526020015f205f6101000a81548160ff0219169083151502179055505b61122f33611235565b50505050565b5f8061123f6103f4565b90505f61124a610cd6565b905060085f8573ffffffffffffffffffffffffffffffffffffffff1673ffffffffffffffffffffffffffffffffffffffff1681526020019081526020015f205f9054906101000a900460ff16156118fd57816003111580156112ac5750600a82105b80156112b9575080600311155b80156112c55750600a81105b156114c25760015f9054906101000a900473ffffffffffffffffffffffffffffffffffffffff1673ffffffffffffffffffffffffffffffffffffffff166376eb62f0856001806040518463ffffffff1660e01b81526004016113299392919061289f565b5f604051808303815f87803b158015611340575f80fd5b505af1158015611352573d5f803e3d5ffd5b505050508373ffffffffffffffffffffffffffffffffffffffff167f2597374d67813e117bb630cfba2b550b863a573e6eeb87fd46e55c0de808ef4460018060405161139f9291906128e7565b60405180910390a25f8054906101000a900473ffffffffffffffffffffffffffffffffffffffff1673ffffffffffffffffffffffffffffffffffffffff166323b872dd60025f9054906101000a900473ffffffffffffffffffffffffffffffffffffffff168660026040518463ffffffff1660e01b815260040161142593929190612947565b6020604051808303815f875af1158015611441573d5f803e3d5ffd5b505050506040513d601f19601f8201168201806040525081019061146591906129a6565b50600260055f8673ffffffffffffffffffffffffffffffffffffffff1673ffffffffffffffffffffffffffffffffffffffff1681526020019081526020015f205f8282546114b391906127e9565b92505081905592505050611a14565b81600a111580156114d4575080600a11155b80156114e05750601482105b80156114ec5750606481105b156116eb5760015f9054906101000a900473ffffffffffffffffffffffffffffffffffffffff1673ffffffffffffffffffffffffffffffffffffffff166376eb62f085600260016040518463ffffffff1660e01b815260040161155193929190612a1b565b5f604051808303815f87803b158015611568575f80fd5b505af115801561157a573d5f803e3d5ffd5b505050508373ffffffffffffffffffffffffffffffffffffffff167f2597374d67813e117bb630cfba2b550b863a573e6eeb87fd46e55c0de808ef44600260016040516115c8929190612a63565b60405180910390a25f8054906101000a900473ffffffffffffffffffffffffffffffffffffffff1673ffffffffffffffffffffffffffffffffffffffff166323b872dd60025f9054906101000a900473ffffffffffffffffffffffffffffffffffffffff1686600a6040518463ffffffff1660e01b815260040161164e93929190612ac3565b6020604051808303815f875af115801561166a573d5f803e3d5ffd5b505050506040513d601f19601f8201168201806040525081019061168e91906129a6565b50600a60055f8673ffffffffffffffffffffffffffffffffffffffff1673ffffffffffffffffffffffffffffffffffffffff1681526020019081526020015f205f8282546116dc91906127e9565b92505081905592505050611a14565b816014111580156116fd575080606411155b156118fc5760015f9054906101000a900473ffffffffffffffffffffffffffffffffffffffff1673ffffffffffffffffffffffffffffffffffffffff166376eb62f085600360016040518463ffffffff1660e01b815260040161176293929190612b7b565b5f604051808303815f87803b158015611779575f80fd5b505af115801561178b573d5f803e3d5ffd5b505050508373ffffffffffffffffffffffffffffffffffffffff167f2597374d67813e117bb630cfba2b550b863a573e6eeb87fd46e55c0de808ef44600360016040516117d9929190612bc3565b60405180910390a25f8054906101000a900473ffffffffffffffffffffffffffffffffffffffff1673ffffffffffffffffffffffffffffffffffffffff166323b872dd60025f9054906101000a900473ffffffffffffffffffffffffffffffffffffffff168660146040518463ffffffff1660e01b815260040161185f93929190612c23565b6020604051808303815f875af115801561187b573d5f803e3d5ffd5b505050506040513d601f19601f8201168201806040525081019061189f91906129a6565b50601460055f8673ffffffffffffffffffffffffffffffffffffffff1673ffffffffffffffffffffffffffffffffffffffff1681526020019081526020015f205f8282546118ed91906127e9565b92505081905592505050611a14565b5b5f8054906101000a900473ffffffffffffffffffffffffffffffffffffffff1673ffffffffffffffffffffffffffffffffffffffff166323b872dd60025f9054906101000a900473ffffffffffffffffffffffffffffffffffffffff168660016040518463ffffffff1660e01b815260040161197b93929190612c58565b6020604051808303815f875af1158015611997573d5f803e3d5ffd5b505050506040513d601f19601f820116820180604052508101906119bb91906129a6565b50600160055f8673ffffffffffffffffffffffffffffffffffffffff1673ffffffffffffffffffffffffffffffffffffffff1681526020019081526020015f205f828254611a0991906127e9565b925050819055925050505b919050565b6040518060800160405280600490602082028036833780820191505090505090565b5f819050919050565b611a4d81611a3b565b82525050565b5f602082019050611a665f830184611a44565b92915050565b5f604051905090565b5f80fd5b5f80fd5b611a8681611a3b565b8114611a90575f80fd5b50565b5f81359050611aa181611a7d565b92915050565b5f80fd5b5f80fd5b5f601f19601f8301169050919050565b7f4e487b71000000000000000000000000000000000000000000000000000000005f52604160045260245ffd5b611af582611aaf565b810181811067ffffffffffffffff82111715611b1457611b13611abf565b5b80604052505050565b5f611b26611a6c565b9050611b328282611aec565b919050565b5f67ffffffffffffffff821115611b5157611b50611abf565b5b611b5a82611aaf565b9050602081019050919050565b828183375f83830152505050565b5f611b87611b8284611b37565b611b1d565b905082815260208101848484011115611ba357611ba2611aab565b5b611bae848285611b67565b509392505050565b5f82601f830112611bca57611bc9611aa7565b5b8135611bda848260208601611b75565b91505092915050565b5f805f60608486031215611bfa57611bf9611a75565b5b5f611c0786828701611a93565b935050602084013567ffffffffffffffff811115611c2857611c27611a79565b5b611c3486828701611bb6565b925050604084013567ffffffffffffffff811115611c5557611c54611a79565b5b611c6186828701611bb6565b9150509250925092565b5f81519050919050565b5f82825260208201905092915050565b5f819050602082019050919050565b5f81519050919050565b5f82825260208201905092915050565b5f5b83811015611ccb578082015181840152602081019050611cb0565b5f8484015250505050565b5f611ce082611c94565b611cea8185611c9e565b9350611cfa818560208601611cae565b611d0381611aaf565b840191505092915050565b5f73ffffffffffffffffffffffffffffffffffffffff82169050919050565b5f611d3782611d0e565b9050919050565b611d4781611d2d565b82525050565b611d5681611a3b565b82525050565b5f608083015f8301518482035f860152611d768282611cd6565b91505060208301518482036020860152611d908282611cd6565b9150506040830151611da56040860182611d3e565b506060830151611db86060860182611d4d565b508091505092915050565b5f611dce8383611d5c565b905092915050565b5f602082019050919050565b5f611dec82611c6b565b611df68185611c75565b935083602082028501611e0885611c85565b805f5b85811015611e435784840389528151611e248582611dc3565b9450611e2f83611dd6565b925060208a01995050600181019050611e0b565b50829750879550505050505092915050565b5f6020820190508181035f830152611e6d8184611de2565b905092915050565b611e7e81611d2d565b8114611e88575f80fd5b50565b5f81359050611e9981611e75565b92915050565b5f60208284031215611eb457611eb3611a75565b5b5f611ec184828501611e8b565b91505092915050565b5f8115159050919050565b611ede81611eca565b82525050565b5f602082019050611ef75f830184611ed5565b92915050565b611f0681611d2d565b82525050565b5f602082019050611f1f5f830184611efd565b92915050565b5f82825260208201905092915050565b5f611f3f82611c94565b611f498185611f25565b9350611f59818560208601611cae565b611f6281611aaf565b840191505092915050565b5f6020820190508181035f830152611f858184611f35565b905092915050565b5f819050919050565b5f611fb0611fab611fa684611d0e565b611f8d565b611d0e565b9050919050565b5f611fc182611f96565b9050919050565b5f611fd282611fb7565b9050919050565b611fe281611fc8565b82525050565b5f602082019050611ffb5f830184611fd9565b92915050565b5f61200b82611fb7565b9050919050565b61201b81612001565b82525050565b5f6020820190506120345f830184612012565b92915050565b5f81519050919050565b5f82825260208201905092915050565b5f819050602082019050919050565b5f61206e8383611d3e565b60208301905092915050565b5f602082019050919050565b5f6120908261203a565b61209a8185612044565b93506120a583612054565b805f5b838110156120d55781516120bc8882612063565b97506120c78361207a565b9250506001810190506120a8565b5085935050505092915050565b5f6020820190508181035f8301526120fa8184612086565b905092915050565b5f60049050919050565b5f81905092915050565b5f819050919050565b5f61212a8383611d4d565b60208301905092915050565b5f602082019050919050565b61214b81612102565b612155818461210c565b925061216082612116565b805f5b83811015612190578151612177878261211f565b965061218283612136565b925050600181019050612163565b505050505050565b5f6080820190506121ab5f830184612142565b92915050565b7f6769766520302e352065746800000000000000000000000000000000000000005f82015250565b5f6121e5600c83611f25565b91506121f0826121b1565b602082019050919050565b5f6020820190508181035f830152612212816121d9565b9050919050565b5f8151905061222781611a7d565b92915050565b5f6020828403121561224257612241611a75565b5b5f61224f84828501612219565b91505092915050565b7f4e6f7420656e6f7567682053544b0000000000000000000000000000000000005f82015250565b5f61228c600e83611f25565b915061229782612258565b602082019050919050565b5f6020820190508181035f8301526122b981612280565b9050919050565b5f6040820190506122d35f830185611efd565b6122e06020830184611efd565b9392505050565b7f596f75722062616c616e636520697320696e73756666696369656e742e0000005f82015250565b5f61231b601d83611f25565b9150612326826122e7565b602082019050919050565b5f6020820190508181035f8301526123488161230f565b9050919050565b7f4e6f742061646d696e00000000000000000000000000000000000000000000005f82015250565b5f612383600983611f25565b915061238e8261234f565b602082019050919050565b5f6020820190508181035f8301526123b081612377565b9050919050565b7f4e487b71000000000000000000000000000000000000000000000000000000005f52602260045260245ffd5b5f60028204905060018216806123fb57607f821691505b60208210810361240e5761240d6123b7565b5b50919050565b7f6f6e6c796d656d626572000000000000000000000000000000000000000000005f82015250565b5f612448600a83611f25565b915061245382612414565b602082019050919050565b5f6020820190508181035f8301526124758161243c565b9050919050565b5f67ffffffffffffffff82111561249657612495611abf565b5b602082029050919050565b5f80fd5b5f6124b76124b28461247c565b611b1d565b905080602084028301858111156124d1576124d06124a1565b5b835b818110156124fa57806124e68882612219565b8452602084019350506020810190506124d3565b5050509392505050565b5f82601f83011261251857612517611aa7565b5b60046125258482856124a5565b91505092915050565b5f6080828403121561254357612542611a75565b5b5f61255084828501612504565b91505092915050565b5f819050815f5260205f209050919050565b5f6020601f8301049050919050565b5f82821b905092915050565b5f600883026125b57fffffffffffffffffffffffffffffffffffffffffffffffffffffffffffffffff8261257a565b6125bf868361257a565b95508019841693508086168417925050509392505050565b5f6125f16125ec6125e784611a3b565b611f8d565b611a3b565b9050919050565b5f819050919050565b61260a836125d7565b61261e612616826125f8565b848454612586565b825550505050565b5f90565b612632612626565b61263d818484612601565b505050565b5b81811015612660576126555f8261262a565b600181019050612643565b5050565b601f8211156126a55761267681612559565b61267f8461256b565b8101602085101561268e578190505b6126a261269a8561256b565b830182612642565b50505b505050565b5f82821c905092915050565b5f6126c55f19846008026126aa565b1980831691505092915050565b5f6126dd83836126b6565b9150826002028217905092915050565b6126f682611c94565b67ffffffffffffffff81111561270f5761270e611abf565b5b61271982546123e4565b612724828285612664565b5f60209050601f831160018114612755575f8415612743578287015190505b61274d85826126d2565b8655506127b4565b601f19841661276386612559565b5f5b8281101561278a57848901518255600182019150602085019450602081019050612765565b868310156127a757848901516127a3601f8916826126b6565b8355505b6001600288020188555050505b505050505050565b7f4e487b71000000000000000000000000000000000000000000000000000000005f52601160045260245ffd5b5f6127f382611a3b565b91506127fe83611a3b565b9250828201905080821115612816576128156127bc565b5b92915050565b5f819050919050565b5f61283f61283a6128358461281c565b611f8d565b611a3b565b9050919050565b61284f81612825565b82525050565b7f6765742073696c766572436c61737320546f6b656e00000000000000000000005f82015250565b5f612889601583611f25565b915061289482612855565b602082019050919050565b5f6080820190506128b25f830186611efd565b6128bf6020830185612846565b6128cc6040830184612846565b81810360608301526128dd8161287d565b9050949350505050565b5f6040820190506128fa5f830185612846565b6129076020830184612846565b9392505050565b5f819050919050565b5f61293161292c6129278461290e565b611f8d565b611a3b565b9050919050565b61294181612917565b82525050565b5f60608201905061295a5f830186611efd565b6129676020830185611efd565b6129746040830184612938565b949350505050565b61298581611eca565b811461298f575f80fd5b50565b5f815190506129a08161297c565b92915050565b5f602082840312156129bb576129ba611a75565b5b5f6129c884828501612992565b91505092915050565b7f67657420676f6c64436c61737320546f6b656e000000000000000000000000005f82015250565b5f612a05601383611f25565b9150612a10826129d1565b602082019050919050565b5f608082019050612a2e5f830186611efd565b612a3b6020830185612938565b612a486040830184612846565b8181036060830152612a59816129f9565b9050949350505050565b5f604082019050612a765f830185612938565b612a836020830184612846565b9392505050565b5f819050919050565b5f612aad612aa8612aa384612a8a565b611f8d565b611a3b565b9050919050565b612abd81612a93565b82525050565b5f606082019050612ad65f830186611efd565b612ae36020830185611efd565b612af06040830184612ab4565b949350505050565b5f819050919050565b5f612b1b612b16612b1184612af8565b611f8d565b611a3b565b9050919050565b612b2b81612b01565b82525050565b7f676574206469616d6f6e64436c61737320546f6b656e000000000000000000005f82015250565b5f612b65601683611f25565b9150612b7082612b31565b602082019050919050565b5f608082019050612b8e5f830186611efd565b612b9b6020830185612b22565b612ba86040830184612846565b8181036060830152612bb981612b59565b9050949350505050565b5f604082019050612bd65f830185612b22565b612be36020830184612846565b9392505050565b5f819050919050565b5f612c0d612c08612c0384612bea565b611f8d565b611a3b565b9050919050565b612c1d81612bf3565b82525050565b5f606082019050612c365f830186611efd565b612c436020830185611efd565b612c506040830184612c14565b949350505050565b5f606082019050612c6b5f830186611efd565b612c786020830185611efd565b612c856040830184612846565b94935050505056fea2646970667358221220ad6fdccee0ac6a7ef70c7da8f44347bb00cdaa09cbc68bb30c21f195031bf31f64736f6c63430008150033",
  "immutableReferences": {},
  "source": "// SPDX-License-Identifier: MIT\npragma solidity ^0.8.20;\n\nimport \"./ERC_1155.sol\";\nimport \"./ERC_20.sol\";\n\ncontract board {\n    ERC_20 public token_20;\n    ERC_1155 public token_1155;\n    address public owner;\n    address public Admin;\n    mapping(address => uint256) public postCount; //  \n    mapping(address => uint256) public rewardTotal; // \n    mapping(address => bool) public isUser; // \n    address[] private users; // user \n    event BadgeIssued(address indexed user, uint256 badgeId, uint256 amount);\n    mapping(address => bool) private member;\n\n    struct Post {\n        //   \n        string title;\n        string content;\n        address writer;\n        uint256 timestamp;\n    }\n\n    Post[] private allPosts; //    \n\n    constructor(address token_20address, address token_1155address) {\n        owner = msg.sender;\n        Admin = msg.sender;\n        token_20 = ERC_20(token_20address);\n        token_1155 = ERC_1155(token_1155address);\n        token_20.approveForCA(address(this));\n        token_1155.setApprovalForPostWarld(address(this), owner);\n    }\n\n    modifier onlyOwner() {\n        // \n        require(msg.sender == owner, \"onlyOwner\");\n        _;\n    }\n    modifier onlyMember() {\n        // \n        require(member[msg.sender], \"onlymember\");\n        _;\n    }\n    modifier onlyAdmin() {\n        // \n        require(msg.sender == Admin, \"Not admin\");\n        _;\n    }\n\n    //     \n    function memberRegistration(\n        address _member\n    ) public onlyAdmin returns (bool) {\n        member[_member] = true;\n        return true;\n    }\n\n    //   , \n    function CAtransfer(\n        uint256 value,\n        string memory title,\n        string memory content\n    ) public payable {\n        // 500,000,000 gwei\n        require(msg.value == 0.5 ether, \"give 0.5 eth\");\n        require(token_20.balanceOf(owner) >= value, \"Not enough STK\");\n        require(\n            token_20.allowance(owner, address(this)) >= value,\n            \"Your balance is insufficient.\"\n        );\n        writePost(title, content);\n        payable(owner).transfer(msg.value);\n    }\n\n    //  \n    function writePost(string memory title, string memory content) private {\n        Post memory newPost = Post({\n            title: title,\n            content: content,\n            writer: msg.sender,\n            timestamp: block.timestamp\n        });\n        allPosts.push(newPost);\n        postCount[msg.sender] += 1;\n        if (!isUser[msg.sender]) {\n            users.push(msg.sender);\n            isUser[msg.sender] = true;\n        }\n        checkAndReward(msg.sender);\n    }\n    //   class \n    function checkAndReward(address user) internal returns (uint256) {\n        uint256 count = getpostCount();\n        uint256 balance = getrewardTotal();\n        // uint256 class = token_1155.getClass(user);\n        if (member[user]) {\n            // NFT   \n            if ((3 <= count && count < 10 && 3 <= balance && balance < 10)) {\n                token_1155.mintClass(user, 1, 1, \"get silverClass Token\");\n                emit BadgeIssued(user, 1, 1);\n                token_20.transferFrom(owner, user, 2); //  \n                return rewardTotal[user] += 2;\n            } else if (\n                10 <= count && 10 <= balance && count < 20 && balance < 100\n            ) {\n                token_1155.mintClass(user, 2, 1, \"get goldClass Token\");\n                emit BadgeIssued(user, 2, 1);\n                token_20.transferFrom(owner, user, 10); //  \n                return rewardTotal[user] += 10;\n            } else if (20 <= count && 100 <= balance) {\n                token_1155.mintClass(user, 3, 1, \"get diamondClass Token\");\n                emit BadgeIssued(user, 3, 1);\n                token_20.transferFrom(owner, user, 20); //  \n                return rewardTotal[user] += 20;\n            }\n        }\n        token_20.transferFrom(owner, user, 1); //   \n        return rewardTotal[user] += 1;\n    }\n    //    \n    function getpostCount() public view returns (uint256) {\n        return postCount[msg.sender];\n    }\n\n    //  class \n    function viewClass(\n        address userAddress\n    ) public view returns (string memory) {\n        uint256 class = token_1155.getClass(userAddress);\n        if (class == 0) return \"Normal\";\n        if (class == 1) return \"GOOD\";\n        if (class == 2) return \"BEST\";\n        if (class == 3) return \"EXCELLENT\";\n        return \"Normal\";\n    }\n\n    //  ()\n    function getuser() public view onlyAdmin returns (address[] memory) {\n        return users;\n    }\n    //    ()\n    function getAllPosts() public view onlyAdmin returns (Post[] memory) {\n        return allPosts;\n    }\n\n    //   ;\n    function getrewardTotal() public view returns (uint256) {\n        return rewardTotal[msg.sender];\n    }\n\n    //  NFT    \n    function getBadgeCounts(\n        address _address\n    ) public view onlyMember returns (uint256[4] memory) {\n        return token_1155.getBadgeCounts(_address);\n    }\n    //   .\n    function isMember() public view returns (bool) {\n        return member[msg.sender];\n    }\n}\n",
  "sourcePath": "/home/mls/blockchain-toy-project/blockchain-toy-project/contracts/board.sol",
  "compiler": {
    "name": "solc",
    "version": "0.8.21+commit.d9974bed.Emscripten.clang"
  },
  "schemaVersion": "3.4.16",
  "updatedAt": "2025-05-28T00:57:42.832Z",
  "devdoc": {
    "kind": "dev",
    "methods": {},
    "version": 1
  },
  "userdoc": {
    "kind": "user",
    "methods": {},
    "version": 1
  }
}