{
  "contractName": "ERC_1155",
  "abi": [
    {
      "inputs": [],
      "stateMutability": "nonpayable",
      "type": "constructor"
    },
    {
      "inputs": [
        {
          "internalType": "address",
          "name": "sender",
          "type": "address"
        },
        {
          "internalType": "uint256",
          "name": "balance",
          "type": "uint256"
        },
        {
          "internalType": "uint256",
          "name": "needed",
          "type": "uint256"
        },
        {
          "internalType": "uint256",
          "name": "tokenId",
          "type": "uint256"
        }
      ],
      "name": "ERC1155InsufficientBalance",
      "type": "error"
    },
    {
      "inputs": [
        {
          "internalType": "address",
          "name": "approver",
          "type": "address"
        }
      ],
      "name": "ERC1155InvalidApprover",
      "type": "error"
    },
    {
      "inputs": [
        {
          "internalType": "uint256",
          "name": "idsLength",
          "type": "uint256"
        },
        {
          "internalType": "uint256",
          "name": "valuesLength",
          "type": "uint256"
        }
      ],
      "name": "ERC1155InvalidArrayLength",
      "type": "error"
    },
    {
      "inputs": [
        {
          "internalType": "address",
          "name": "operator",
          "type": "address"
        }
      ],
      "name": "ERC1155InvalidOperator",
      "type": "error"
    },
    {
      "inputs": [
        {
          "internalType": "address",
          "name": "receiver",
          "type": "address"
        }
      ],
      "name": "ERC1155InvalidReceiver",
      "type": "error"
    },
    {
      "inputs": [
        {
          "internalType": "address",
          "name": "sender",
          "type": "address"
        }
      ],
      "name": "ERC1155InvalidSender",
      "type": "error"
    },
    {
      "inputs": [
        {
          "internalType": "address",
          "name": "operator",
          "type": "address"
        },
        {
          "internalType": "address",
          "name": "owner",
          "type": "address"
        }
      ],
      "name": "ERC1155MissingApprovalForAll",
      "type": "error"
    },
    {
      "anonymous": false,
      "inputs": [
        {
          "indexed": true,
          "internalType": "address",
          "name": "account",
          "type": "address"
        },
        {
          "indexed": true,
          "internalType": "address",
          "name": "operator",
          "type": "address"
        },
        {
          "indexed": false,
          "internalType": "bool",
          "name": "approved",
          "type": "bool"
        }
      ],
      "name": "ApprovalForAll",
      "type": "event"
    },
    {
      "anonymous": false,
      "inputs": [
        {
          "indexed": true,
          "internalType": "address",
          "name": "operator",
          "type": "address"
        },
        {
          "indexed": true,
          "internalType": "address",
          "name": "from",
          "type": "address"
        },
        {
          "indexed": true,
          "internalType": "address",
          "name": "to",
          "type": "address"
        },
        {
          "indexed": false,
          "internalType": "uint256[]",
          "name": "ids",
          "type": "uint256[]"
        },
        {
          "indexed": false,
          "internalType": "uint256[]",
          "name": "values",
          "type": "uint256[]"
        }
      ],
      "name": "TransferBatch",
      "type": "event"
    },
    {
      "anonymous": false,
      "inputs": [
        {
          "indexed": true,
          "internalType": "address",
          "name": "operator",
          "type": "address"
        },
        {
          "indexed": true,
          "internalType": "address",
          "name": "from",
          "type": "address"
        },
        {
          "indexed": true,
          "internalType": "address",
          "name": "to",
          "type": "address"
        },
        {
          "indexed": false,
          "internalType": "uint256",
          "name": "id",
          "type": "uint256"
        },
        {
          "indexed": false,
          "internalType": "uint256",
          "name": "value",
          "type": "uint256"
        }
      ],
      "name": "TransferSingle",
      "type": "event"
    },
    {
      "anonymous": false,
      "inputs": [
        {
          "indexed": false,
          "internalType": "string",
          "name": "value",
          "type": "string"
        },
        {
          "indexed": true,
          "internalType": "uint256",
          "name": "id",
          "type": "uint256"
        }
      ],
      "name": "URI",
      "type": "event"
    },
    {
      "inputs": [],
      "name": "BEST",
      "outputs": [
        {
          "internalType": "uint256",
          "name": "",
          "type": "uint256"
        }
      ],
      "stateMutability": "view",
      "type": "function"
    },
    {
      "inputs": [],
      "name": "EXCELLENT",
      "outputs": [
        {
          "internalType": "uint256",
          "name": "",
          "type": "uint256"
        }
      ],
      "stateMutability": "view",
      "type": "function"
    },
    {
      "inputs": [],
      "name": "GOOD",
      "outputs": [
        {
          "internalType": "uint256",
          "name": "",
          "type": "uint256"
        }
      ],
      "stateMutability": "view",
      "type": "function"
    },
    {
      "inputs": [
        {
          "internalType": "address",
          "name": "account",
          "type": "address"
        },
        {
          "internalType": "uint256",
          "name": "id",
          "type": "uint256"
        }
      ],
      "name": "balanceOf",
      "outputs": [
        {
          "internalType": "uint256",
          "name": "",
          "type": "uint256"
        }
      ],
      "stateMutability": "view",
      "type": "function"
    },
    {
      "inputs": [
        {
          "internalType": "address[]",
          "name": "accounts",
          "type": "address[]"
        },
        {
          "internalType": "uint256[]",
          "name": "ids",
          "type": "uint256[]"
        }
      ],
      "name": "balanceOfBatch",
      "outputs": [
        {
          "internalType": "uint256[]",
          "name": "",
          "type": "uint256[]"
        }
      ],
      "stateMutability": "view",
      "type": "function"
    },
    {
      "inputs": [
        {
          "internalType": "address",
          "name": "account",
          "type": "address"
        },
        {
          "internalType": "address",
          "name": "operator",
          "type": "address"
        }
      ],
      "name": "isApprovedForAll",
      "outputs": [
        {
          "internalType": "bool",
          "name": "",
          "type": "bool"
        }
      ],
      "stateMutability": "view",
      "type": "function"
    },
    {
      "inputs": [],
      "name": "namal",
      "outputs": [
        {
          "internalType": "uint256",
          "name": "",
          "type": "uint256"
        }
      ],
      "stateMutability": "view",
      "type": "function"
    },
    {
      "inputs": [],
      "name": "owner",
      "outputs": [
        {
          "internalType": "address",
          "name": "",
          "type": "address"
        }
      ],
      "stateMutability": "view",
      "type": "function"
    },
    {
      "inputs": [
        {
          "internalType": "address",
          "name": "from",
          "type": "address"
        },
        {
          "internalType": "address",
          "name": "to",
          "type": "address"
        },
        {
          "internalType": "uint256[]",
          "name": "ids",
          "type": "uint256[]"
        },
        {
          "internalType": "uint256[]",
          "name": "values",
          "type": "uint256[]"
        },
        {
          "internalType": "bytes",
          "name": "data",
          "type": "bytes"
        }
      ],
      "name": "safeBatchTransferFrom",
      "outputs": [],
      "stateMutability": "nonpayable",
      "type": "function"
    },
    {
      "inputs": [
        {
          "internalType": "address",
          "name": "from",
          "type": "address"
        },
        {
          "internalType": "address",
          "name": "to",
          "type": "address"
        },
        {
          "internalType": "uint256",
          "name": "id",
          "type": "uint256"
        },
        {
          "internalType": "uint256",
          "name": "value",
          "type": "uint256"
        },
        {
          "internalType": "bytes",
          "name": "data",
          "type": "bytes"
        }
      ],
      "name": "safeTransferFrom",
      "outputs": [],
      "stateMutability": "nonpayable",
      "type": "function"
    },
    {
      "inputs": [
        {
          "internalType": "address",
          "name": "operator",
          "type": "address"
        },
        {
          "internalType": "bool",
          "name": "approved",
          "type": "bool"
        }
      ],
      "name": "setApprovalForAll",
      "outputs": [],
      "stateMutability": "nonpayable",
      "type": "function"
    },
    {
      "inputs": [
        {
          "internalType": "bytes4",
          "name": "interfaceId",
          "type": "bytes4"
        }
      ],
      "name": "supportsInterface",
      "outputs": [
        {
          "internalType": "bool",
          "name": "",
          "type": "bool"
        }
      ],
      "stateMutability": "view",
      "type": "function"
    },
    {
      "inputs": [
        {
          "internalType": "uint256",
          "name": "",
          "type": "uint256"
        }
      ],
      "name": "uri",
      "outputs": [
        {
          "internalType": "string",
          "name": "",
          "type": "string"
        }
      ],
      "stateMutability": "view",
      "type": "function"
    },
    {
      "inputs": [
        {
          "internalType": "address",
          "name": "to",
          "type": "address"
        },
        {
          "internalType": "uint256",
          "name": "id",
          "type": "uint256"
        },
        {
          "internalType": "uint256",
          "name": "amount",
          "type": "uint256"
        },
        {
          "internalType": "string",
          "name": "message",
          "type": "string"
        }
      ],
      "name": "mintClass",
      "outputs": [],
      "stateMutability": "payable",
      "type": "function"
    },
    {
      "inputs": [
        {
          "internalType": "address",
          "name": "boardID",
          "type": "address"
        },
        {
          "internalType": "address",
          "name": "_owner",
          "type": "address"
        }
      ],
      "name": "setApprovalForPostWarld",
      "outputs": [],
      "stateMutability": "nonpayable",
      "type": "function"
    },
    {
      "inputs": [
        {
          "internalType": "address",
          "name": "useraddress",
          "type": "address"
        }
      ],
      "name": "getClass",
      "outputs": [
        {
          "internalType": "uint256",
          "name": "",
          "type": "uint256"
        }
      ],
      "stateMutability": "view",
      "type": "function"
    },
    {
      "inputs": [
        {
          "internalType": "address",
          "name": "user",
          "type": "address"
        }
      ],
      "name": "getBadgeCounts",
      "outputs": [
        {
          "internalType": "uint256[4]",
          "name": "",
          "type": "uint256[4]"
        }
      ],
      "stateMutability": "view",
      "type": "function"
    },
    {
      "inputs": [],
      "name": "getowner",
      "outputs": [
        {
          "internalType": "address",
          "name": "",
          "type": "address"
        }
      ],
      "stateMutability": "view",
      "type": "function"
    }
  ],
  "bytecode": "0x60806040525f60045560016005556002600655600360075534801562000023575f80fd5b506040518060800160405280604c815260200162002a2d604c91396200004f816200009660201b60201c565b503360035f6101000a81548173ffffffffffffffffffffffffffffffffffffffff021916908373ffffffffffffffffffffffffffffffffffffffff160217905550620003f3565b8060029081620000a791906200030f565b5050565b5f81519050919050565b7f4e487b71000000000000000000000000000000000000000000000000000000005f52604160045260245ffd5b7f4e487b71000000000000000000000000000000000000000000000000000000005f52602260045260245ffd5b5f60028204905060018216806200012757607f821691505b6020821081036200013d576200013c620000e2565b5b50919050565b5f819050815f5260205f209050919050565b5f6020601f8301049050919050565b5f82821b905092915050565b5f60088302620001a17fffffffffffffffffffffffffffffffffffffffffffffffffffffffffffffffff8262000164565b620001ad868362000164565b95508019841693508086168417925050509392505050565b5f819050919050565b5f819050919050565b5f620001f7620001f1620001eb84620001c5565b620001ce565b620001c5565b9050919050565b5f819050919050565b6200021283620001d7565b6200022a6200022182620001fe565b84845462000170565b825550505050565b5f90565b6200024062000232565b6200024d81848462000207565b505050565b5b818110156200027457620002685f8262000236565b60018101905062000253565b5050565b601f821115620002c3576200028d8162000143565b620002988462000155565b81016020851015620002a8578190505b620002c0620002b78562000155565b83018262000252565b50505b505050565b5f82821c905092915050565b5f620002e55f1984600802620002c8565b1980831691505092915050565b5f620002ff8383620002d4565b9150826002028217905092915050565b6200031a82620000ab565b67ffffffffffffffff811115620003365762000335620000b5565b5b6200034282546200010f565b6200034f82828562000278565b5f60209050601f83116001811462000385575f841562000370578287015190505b6200037c8582620002f2565b865550620003eb565b601f198416620003958662000143565b5f5b82811015620003be5784890151825560018201915060208501945060208101905062000397565b86831015620003de5784890151620003da601f891682620002d4565b8355505b6001600288020188555050505b505050505050565b61262c80620004015f395ff3fe608060405260043610610107575f3560e01c806376eb62f011610094578063ddcd6d3f11610063578063ddcd6d3f14610375578063e7f192011461039d578063e985e9c5146103d9578063f242432a14610415578063fe0174bd1461043d57610107565b806376eb62f0146102dd5780638da5cb5b146102f9578063a22cb46514610323578063d5580ea61461034b57610107565b80632eb2c2d6116100db5780632eb2c2d6146101fb57806339d8dc9b1461022357806346d5e8101461024d5780634e1273f4146102775780636dc80e22146102b357610107565b8062fdd58e1461010b57806301ffc9a7146101475780630cd1bbe3146101835780630e89341c146101bf575b5f80fd5b348015610116575f80fd5b50610131600480360381019061012c9190611850565b610467565b60405161013e919061189d565b60405180910390f35b348015610152575f80fd5b5061016d6004803603810190610168919061190b565b6104bc565b60405161017a9190611950565b60405180910390f35b34801561018e575f80fd5b506101a960048036038101906101a49190611969565b61059d565b6040516101b6919061189d565b60405180910390f35b3480156101ca575f80fd5b506101e560048036038101906101e09190611994565b610613565b6040516101f29190611a49565b60405180910390f35b348015610206575f80fd5b50610221600480360381019061021c9190611c59565b6106a5565b005b34801561022e575f80fd5b5061023761074c565b604051610244919061189d565b60405180910390f35b348015610258575f80fd5b50610261610752565b60405161026e919061189d565b60405180910390f35b348015610282575f80fd5b5061029d60048036038101906102989190611de4565b610758565b6040516102aa9190611f11565b60405180910390f35b3480156102be575f80fd5b506102c7610865565b6040516102d4919061189d565b60405180910390f35b6102f760048036038101906102f29190611fcf565b61086b565b005b348015610304575f80fd5b5061030d61087d565b60405161031a919061205e565b60405180910390f35b34801561032e575f80fd5b50610349600480360381019061034491906120a1565b6108a2565b005b348015610356575f80fd5b5061035f6108b8565b60405161036c919061189d565b60405180910390f35b348015610380575f80fd5b5061039b600480360381019061039691906120df565b6108be565b005b3480156103a8575f80fd5b506103c360048036038101906103be9190611969565b61097e565b6040516103d0919061219c565b60405180910390f35b3480156103e4575f80fd5b506103ff60048036038101906103fa91906120df565b6109d5565b60405161040c9190611950565b60405180910390f35b348015610420575f80fd5b5061043b600480360381019061043691906121b5565b610a63565b005b348015610448575f80fd5b50610451610b0a565b60405161045e919061205e565b60405180910390f35b5f805f8381526020019081526020015f205f8473ffffffffffffffffffffffffffffffffffffffff1673ffffffffffffffffffffffffffffffffffffffff1681526020019081526020015f2054905092915050565b5f7fd9b67a26000000000000000000000000000000000000000000000000000000007bffffffffffffffffffffffffffffffffffffffffffffffffffffffff1916827bffffffffffffffffffffffffffffffffffffffffffffffffffffffff1916148061058657507f0e89341c000000000000000000000000000000000000000000000000000000007bffffffffffffffffffffffffffffffffffffffffffffffffffffffff1916827bffffffffffffffffffffffffffffffffffffffffffffffffffffffff1916145b80610596575061059582610b32565b5b9050919050565b5f806105aa836003610467565b11156105b9576003905061060e565b5f6105c5836002610467565b11156105d4576002905061060e565b5f6105e0836001610467565b11156105ef576001905061060e565b5f6105fa835f610467565b1115610608575f905061060e565b61270f90505b919050565b60606002805461062290612275565b80601f016020809104026020016040519081016040528092919081815260200182805461064e90612275565b80156106995780601f1061067057610100808354040283529160200191610699565b820191905f5260205f20905b81548152906001019060200180831161067c57829003601f168201915b50505050509050919050565b5f6106ae610b9b565b90508073ffffffffffffffffffffffffffffffffffffffff168673ffffffffffffffffffffffffffffffffffffffff16141580156106f357506106f186826109d5565b155b156107375780866040517fe237d92200000000000000000000000000000000000000000000000000000000815260040161072e9291906122a5565b60405180910390fd5b6107448686868686610ba2565b505050505050565b60065481565b60075481565b606081518351146107a457815183516040517f5b05999100000000000000000000000000000000000000000000000000000000815260040161079b9291906122cc565b60405180910390fd5b5f835167ffffffffffffffff8111156107c0576107bf611a6d565b5b6040519080825280602002602001820160405280156107ee5781602001602082028036833780820191505090505b5090505f5b845181101561085a5761082a6108128287610c9690919063ffffffff16565b6108258387610ca990919063ffffffff16565b610467565b82828151811061083d5761083c6122f3565b5b602002602001018181525050806108539061234d565b90506107f3565b508091505092915050565b60045481565b61087784848484610cbc565b50505050565b60035f9054906101000a900473ffffffffffffffffffffffffffffffffffffffff1681565b6108b46108ad610b9b565b8383610d51565b5050565b60055481565b60035f9054906101000a900473ffffffffffffffffffffffffffffffffffffffff1673ffffffffffffffffffffffffffffffffffffffff168173ffffffffffffffffffffffffffffffffffffffff161461094d576040517f08c379a0000000000000000000000000000000000000000000000000000000008152600401610944906123de565b60405180910390fd5b61097a60035f9054906101000a900473ffffffffffffffffffffffffffffffffffffffff16836001610d51565b5050565b610986611790565b604051806080016040528061099b845f610467565b81526020016109ab846001610467565b81526020016109bb846002610467565b81526020016109cb846003610467565b8152509050919050565b5f60015f8473ffffffffffffffffffffffffffffffffffffffff1673ffffffffffffffffffffffffffffffffffffffff1681526020019081526020015f205f8373ffffffffffffffffffffffffffffffffffffffff1673ffffffffffffffffffffffffffffffffffffffff1681526020019081526020015f205f9054906101000a900460ff16905092915050565b5f610a6c610b9b565b90508073ffffffffffffffffffffffffffffffffffffffff168673ffffffffffffffffffffffffffffffffffffffff1614158015610ab15750610aaf86826109d5565b155b15610af55780866040517fe237d922000000000000000000000000000000000000000000000000000000008152600401610aec9291906122a5565b60405180910390fd5b610b028686868686610eba565b505050505050565b5f60035f9054906101000a900473ffffffffffffffffffffffffffffffffffffffff16905090565b5f7f01ffc9a7000000000000000000000000000000000000000000000000000000007bffffffffffffffffffffffffffffffffffffffffffffffffffffffff1916827bffffffffffffffffffffffffffffffffffffffffffffffffffffffff1916149050919050565b5f33905090565b5f73ffffffffffffffffffffffffffffffffffffffff168473ffffffffffffffffffffffffffffffffffffffff1603610c12575f6040517f57f447ce000000000000000000000000000000000000000000000000000000008152600401610c09919061205e565b60405180910390fd5b5f73ffffffffffffffffffffffffffffffffffffffff168573ffffffffffffffffffffffffffffffffffffffff1603610c82575f6040517f01a83514000000000000000000000000000000000000000000000000000000008152600401610c79919061205e565b60405180910390fd5b610c8f8585858585610fc0565b5050505050565b5f60208202602084010151905092915050565b5f60208202602084010151905092915050565b5f73ffffffffffffffffffffffffffffffffffffffff168473ffffffffffffffffffffffffffffffffffffffff1603610d2c575f6040517f57f447ce000000000000000000000000000000000000000000000000000000008152600401610d23919061205e565b60405180910390fd5b5f80610d38858561106c565b91509150610d495f87848487610fc0565b505050505050565b5f73ffffffffffffffffffffffffffffffffffffffff168273ffffffffffffffffffffffffffffffffffffffff1603610dc1575f6040517fced3e100000000000000000000000000000000000000000000000000000000008152600401610db8919061205e565b60405180910390fd5b8060015f8573ffffffffffffffffffffffffffffffffffffffff1673ffffffffffffffffffffffffffffffffffffffff1681526020019081526020015f205f8473ffffffffffffffffffffffffffffffffffffffff1673ffffffffffffffffffffffffffffffffffffffff1681526020019081526020015f205f6101000a81548160ff0219169083151502179055508173ffffffffffffffffffffffffffffffffffffffff168373ffffffffffffffffffffffffffffffffffffffff167f17307eab39ab6107e8899845ad3d59bd9653f200f220920489ca2b5937696c3183604051610ead9190611950565b60405180910390a3505050565b5f73ffffffffffffffffffffffffffffffffffffffff168473ffffffffffffffffffffffffffffffffffffffff1603610f2a575f6040517f57f447ce000000000000000000000000000000000000000000000000000000008152600401610f21919061205e565b60405180910390fd5b5f73ffffffffffffffffffffffffffffffffffffffff168573ffffffffffffffffffffffffffffffffffffffff1603610f9a575f6040517f01a83514000000000000000000000000000000000000000000000000000000008152600401610f91919061205e565b60405180910390fd5b5f80610fa6858561106c565b91509150610fb78787848487610fc0565b50505050505050565b610fcc8585858561109c565b5f73ffffffffffffffffffffffffffffffffffffffff168473ffffffffffffffffffffffffffffffffffffffff1614611065575f611008610b9b565b90506001845103611054575f6110275f86610ca990919063ffffffff16565b90505f61103d5f86610ca990919063ffffffff16565b905061104d838989858589611432565b5050611063565b6110628187878787876115e1565b5b505b5050505050565b60608060405191506001825283602083015260408201905060018152826020820152604081016040529250929050565b80518251146110e657815181516040517f5b0599910000000000000000000000000000000000000000000000000000000081526004016110dd9291906122cc565b60405180910390fd5b5f6110ef610b9b565b90505f5b83518110156112f1575f6111108286610ca990919063ffffffff16565b90505f6111268386610ca990919063ffffffff16565b90505f73ffffffffffffffffffffffffffffffffffffffff168873ffffffffffffffffffffffffffffffffffffffff1614611249575f805f8481526020019081526020015f205f8a73ffffffffffffffffffffffffffffffffffffffff1673ffffffffffffffffffffffffffffffffffffffff1681526020019081526020015f20549050818110156111f557888183856040517f03dee4c50000000000000000000000000000000000000000000000000000000081526004016111ec94939291906123fc565b60405180910390fd5b8181035f808581526020019081526020015f205f8b73ffffffffffffffffffffffffffffffffffffffff1673ffffffffffffffffffffffffffffffffffffffff1681526020019081526020015f2081905550505b5f73ffffffffffffffffffffffffffffffffffffffff168773ffffffffffffffffffffffffffffffffffffffff16146112de57805f808481526020019081526020015f205f8973ffffffffffffffffffffffffffffffffffffffff1673ffffffffffffffffffffffffffffffffffffffff1681526020019081526020015f205f8282546112d6919061243f565b925050819055505b5050806112ea9061234d565b90506110f3565b5060018351036113ac575f61130f5f85610ca990919063ffffffff16565b90505f6113255f85610ca990919063ffffffff16565b90508573ffffffffffffffffffffffffffffffffffffffff168773ffffffffffffffffffffffffffffffffffffffff168473ffffffffffffffffffffffffffffffffffffffff167fc3d58168c5ae7397731d063d5bbf3d657854427343f4c083240f7aacaa2d0f62858560405161139d9291906122cc565b60405180910390a4505061142b565b8373ffffffffffffffffffffffffffffffffffffffff168573ffffffffffffffffffffffffffffffffffffffff168273ffffffffffffffffffffffffffffffffffffffff167f4a39dc06d4c0dbc64b70af90fd698a233a518aa5d07e595d983b8c0526c8f7fb8686604051611422929190612472565b60405180910390a45b5050505050565b5f8473ffffffffffffffffffffffffffffffffffffffff163b11156115d9578373ffffffffffffffffffffffffffffffffffffffff1663f23a6e6187878686866040518663ffffffff1660e01b81526004016114929594939291906124f9565b6020604051808303815f875af19250505080156114cd57506040513d601f19601f820116820180604052508101906114ca9190612565565b60015b61154e573d805f81146114fb576040519150601f19603f3d011682016040523d82523d5f602084013e611500565b606091505b505f81510361154657846040517f57f447ce00000000000000000000000000000000000000000000000000000000815260040161153d919061205e565b60405180910390fd5b805181602001fd5b63f23a6e6160e01b7bffffffffffffffffffffffffffffffffffffffffffffffffffffffff1916817bffffffffffffffffffffffffffffffffffffffffffffffffffffffff1916146115d757846040517f57f447ce0000000000000000000000000000000000000000000000000000000081526004016115ce919061205e565b60405180910390fd5b505b505050505050565b5f8473ffffffffffffffffffffffffffffffffffffffff163b1115611788578373ffffffffffffffffffffffffffffffffffffffff1663bc197c8187878686866040518663ffffffff1660e01b8152600401611641959493929190612590565b6020604051808303815f875af192505050801561167c57506040513d601f19601f820116820180604052508101906116799190612565565b60015b6116fd573d805f81146116aa576040519150601f19603f3d011682016040523d82523d5f602084013e6116af565b606091505b505f8151036116f557846040517f57f447ce0000000000000000000000000000000000000000000000000000000081526004016116ec919061205e565b60405180910390fd5b805181602001fd5b63bc197c8160e01b7bffffffffffffffffffffffffffffffffffffffffffffffffffffffff1916817bffffffffffffffffffffffffffffffffffffffffffffffffffffffff19161461178657846040517f57f447ce00000000000000000000000000000000000000000000000000000000815260040161177d919061205e565b60405180910390fd5b505b505050505050565b6040518060800160405280600490602082028036833780820191505090505090565b5f604051905090565b5f80fd5b5f80fd5b5f73ffffffffffffffffffffffffffffffffffffffff82169050919050565b5f6117ec826117c3565b9050919050565b6117fc816117e2565b8114611806575f80fd5b50565b5f81359050611817816117f3565b92915050565b5f819050919050565b61182f8161181d565b8114611839575f80fd5b50565b5f8135905061184a81611826565b92915050565b5f8060408385031215611866576118656117bb565b5b5f61187385828601611809565b92505060206118848582860161183c565b9150509250929050565b6118978161181d565b82525050565b5f6020820190506118b05f83018461188e565b92915050565b5f7fffffffff0000000000000000000000000000000000000000000000000000000082169050919050565b6118ea816118b6565b81146118f4575f80fd5b50565b5f81359050611905816118e1565b92915050565b5f602082840312156119205761191f6117bb565b5b5f61192d848285016118f7565b91505092915050565b5f8115159050919050565b61194a81611936565b82525050565b5f6020820190506119635f830184611941565b92915050565b5f6020828403121561197e5761197d6117bb565b5b5f61198b84828501611809565b91505092915050565b5f602082840312156119a9576119a86117bb565b5b5f6119b68482850161183c565b91505092915050565b5f81519050919050565b5f82825260208201905092915050565b5f5b838110156119f65780820151818401526020810190506119db565b5f8484015250505050565b5f601f19601f8301169050919050565b5f611a1b826119bf565b611a2581856119c9565b9350611a358185602086016119d9565b611a3e81611a01565b840191505092915050565b5f6020820190508181035f830152611a618184611a11565b905092915050565b5f80fd5b7f4e487b71000000000000000000000000000000000000000000000000000000005f52604160045260245ffd5b611aa382611a01565b810181811067ffffffffffffffff82111715611ac257611ac1611a6d565b5b80604052505050565b5f611ad46117b2565b9050611ae08282611a9a565b919050565b5f67ffffffffffffffff821115611aff57611afe611a6d565b5b602082029050602081019050919050565b5f80fd5b5f611b26611b2184611ae5565b611acb565b90508083825260208201905060208402830185811115611b4957611b48611b10565b5b835b81811015611b725780611b5e888261183c565b845260208401935050602081019050611b4b565b5050509392505050565b5f82601f830112611b9057611b8f611a69565b5b8135611ba0848260208601611b14565b91505092915050565b5f80fd5b5f67ffffffffffffffff821115611bc757611bc6611a6d565b5b611bd082611a01565b9050602081019050919050565b828183375f83830152505050565b5f611bfd611bf884611bad565b611acb565b905082815260208101848484011115611c1957611c18611ba9565b5b611c24848285611bdd565b509392505050565b5f82601f830112611c4057611c3f611a69565b5b8135611c50848260208601611beb565b91505092915050565b5f805f805f60a08688031215611c7257611c716117bb565b5b5f611c7f88828901611809565b9550506020611c9088828901611809565b945050604086013567ffffffffffffffff811115611cb157611cb06117bf565b5b611cbd88828901611b7c565b935050606086013567ffffffffffffffff811115611cde57611cdd6117bf565b5b611cea88828901611b7c565b925050608086013567ffffffffffffffff811115611d0b57611d0a6117bf565b5b611d1788828901611c2c565b9150509295509295909350565b5f67ffffffffffffffff821115611d3e57611d3d611a6d565b5b602082029050602081019050919050565b5f611d61611d5c84611d24565b611acb565b90508083825260208201905060208402830185811115611d8457611d83611b10565b5b835b81811015611dad5780611d998882611809565b845260208401935050602081019050611d86565b5050509392505050565b5f82601f830112611dcb57611dca611a69565b5b8135611ddb848260208601611d4f565b91505092915050565b5f8060408385031215611dfa57611df96117bb565b5b5f83013567ffffffffffffffff811115611e1757611e166117bf565b5b611e2385828601611db7565b925050602083013567ffffffffffffffff811115611e4457611e436117bf565b5b611e5085828601611b7c565b9150509250929050565b5f81519050919050565b5f82825260208201905092915050565b5f819050602082019050919050565b611e8c8161181d565b82525050565b5f611e9d8383611e83565b60208301905092915050565b5f602082019050919050565b5f611ebf82611e5a565b611ec98185611e64565b9350611ed483611e74565b805f5b83811015611f04578151611eeb8882611e92565b9750611ef683611ea9565b925050600181019050611ed7565b5085935050505092915050565b5f6020820190508181035f830152611f298184611eb5565b905092915050565b5f67ffffffffffffffff821115611f4b57611f4a611a6d565b5b611f5482611a01565b9050602081019050919050565b5f611f73611f6e84611f31565b611acb565b905082815260208101848484011115611f8f57611f8e611ba9565b5b611f9a848285611bdd565b509392505050565b5f82601f830112611fb657611fb5611a69565b5b8135611fc6848260208601611f61565b91505092915050565b5f805f8060808587031215611fe757611fe66117bb565b5b5f611ff487828801611809565b94505060206120058782880161183c565b93505060406120168782880161183c565b925050606085013567ffffffffffffffff811115612037576120366117bf565b5b61204387828801611fa2565b91505092959194509250565b612058816117e2565b82525050565b5f6020820190506120715f83018461204f565b92915050565b61208081611936565b811461208a575f80fd5b50565b5f8135905061209b81612077565b92915050565b5f80604083850312156120b7576120b66117bb565b5b5f6120c485828601611809565b92505060206120d58582860161208d565b9150509250929050565b5f80604083850312156120f5576120f46117bb565b5b5f61210285828601611809565b925050602061211385828601611809565b9150509250929050565b5f60049050919050565b5f81905092915050565b5f819050919050565b5f602082019050919050565b61214f8161211d565b6121598184612127565b925061216482612131565b805f5b8381101561219457815161217b8782611e92565b96506121868361213a565b925050600181019050612167565b505050505050565b5f6080820190506121af5f830184612146565b92915050565b5f805f805f60a086880312156121ce576121cd6117bb565b5b5f6121db88828901611809565b95505060206121ec88828901611809565b94505060406121fd8882890161183c565b935050606061220e8882890161183c565b925050608086013567ffffffffffffffff81111561222f5761222e6117bf565b5b61223b88828901611c2c565b9150509295509295909350565b7f4e487b71000000000000000000000000000000000000000000000000000000005f52602260045260245ffd5b5f600282049050600182168061228c57607f821691505b60208210810361229f5761229e612248565b5b50919050565b5f6040820190506122b85f83018561204f565b6122c5602083018461204f565b9392505050565b5f6040820190506122df5f83018561188e565b6122ec602083018461188e565b9392505050565b7f4e487b71000000000000000000000000000000000000000000000000000000005f52603260045260245ffd5b7f4e487b71000000000000000000000000000000000000000000000000000000005f52601160045260245ffd5b5f6123578261181d565b91507fffffffffffffffffffffffffffffffffffffffffffffffffffffffffffffffff820361238957612388612320565b5b600182019050919050565b7f6e6f74206f776e657200000000000000000000000000000000000000000000005f82015250565b5f6123c86009836119c9565b91506123d382612394565b602082019050919050565b5f6020820190508181035f8301526123f5816123bc565b9050919050565b5f60808201905061240f5f83018761204f565b61241c602083018661188e565b612429604083018561188e565b612436606083018461188e565b95945050505050565b5f6124498261181d565b91506124548361181d565b925082820190508082111561246c5761246b612320565b5b92915050565b5f6040820190508181035f83015261248a8185611eb5565b9050818103602083015261249e8184611eb5565b90509392505050565b5f81519050919050565b5f82825260208201905092915050565b5f6124cb826124a7565b6124d581856124b1565b93506124e58185602086016119d9565b6124ee81611a01565b840191505092915050565b5f60a08201905061250c5f83018861204f565b612519602083018761204f565b612526604083018661188e565b612533606083018561188e565b818103608083015261254581846124c1565b90509695505050505050565b5f8151905061255f816118e1565b92915050565b5f6020828403121561257a576125796117bb565b5b5f61258784828501612551565b91505092915050565b5f60a0820190506125a35f83018861204f565b6125b0602083018761204f565b81810360408301526125c28186611eb5565b905081810360608301526125d68185611eb5565b905081810360808301526125ea81846124c1565b9050969550505050505056fea2646970667358221220c1b95e8da109fde66b5d8d527d8d310e7ff765607fd75a884f7cb8d931ce47bd64736f6c63430008150033697066733a2f2f626166796265696770776570756d786c6e726533326879633679733765736267696a35357778717464356564666d736a377578336e79706d6466712f7b69647d2e6a736f6e",
  "immutableReferences": {},
  "source": "// SPDX-License-Identifier: MIT\npragma solidity ^0.8.20;\n\nimport \"@openzeppelin/contracts/token/ERC1155/ERC1155.sol\";\n\ncontract ERC_1155 is ERC1155 {\n    address public owner;\n    uint256 public namal = 0;\n    uint256 public GOOD = 1;\n    uint256 public BEST = 2;\n    uint256 public EXCELLENT = 3;\n\n    modifier onlyOwner() {\n        require(msg.sender == owner, \"onlyOwner\");\n        _;\n    }\n    // \"ipfs://bafybeigpwepumxlnre32hyc6ys7esbgij55wxqtd5edfmsj7ux3nypmdfq/{id}.json\"\n    constructor()\n        ERC1155(\n            \"ipfs://bafybeigpwepumxlnre32hyc6ys7esbgij55wxqtd5edfmsj7ux3nypmdfq/{id}.json\"\n        )\n    {\n        owner = msg.sender;\n    }\n\n    function mintClass(\n        address to,\n        uint256 id,\n        uint256 amount,\n        string memory message\n    ) public payable {\n        _mint(to, id, amount, bytes(message));\n    }\n    function setApprovalForPostWarld(address boardID, address _owner) public {\n        //\n        require(_owner == owner, \"not owner\");\n        _setApprovalForAll(owner, boardID, true);\n    }\n\n    function getClass(address useraddress) public view returns (uint256) {\n        if (balanceOf(useraddress, 3) > 0) {\n            return 3; // Diamond\n        } else if (balanceOf(useraddress, 2) > 0) {\n            return 2; // Gold\n        } else if (balanceOf(useraddress, 1) > 0) {\n            return 1; // Silver\n        } else if (balanceOf(useraddress, 0) > 0) {\n            return 0; // Normal\n        }\n        return 9999; //    \n    }\n\n    //  NFT    \n    function getBadgeCounts(\n        address user\n    ) public view returns (uint256[4] memory) {\n        return [\n            balanceOf(user, 0), // Normal\n            balanceOf(user, 1), // GOOD\n            balanceOf(user, 2), // BEST\n            balanceOf(user, 3) // EXCELLENT\n        ];\n    }\n    function getowner() public view returns (address) {\n        return owner;\n    }\n\n    // function getClass(address useraddress, uint256 id) public view returns (uint256) {\n    //     return balanceOf(useraddress, id);\n    // }\n\n    // function mintBadgeIfQualified(address user, uint256 id) public onlyOwner {\n    //     if (id == silver) {\n    //         require(\n    //             postCount[user] >= 3 && rewardTotal[user] >= 10,\n    //             \"Not qualified for silver\"\n    //         );\n    //     } else if (id == gold) {\n    //         require(\n    //             postCount[user] >= 10 && rewardTotal[user] >= 30,\n    //             \"Not qualified for gold\"\n    //         );\n    //     } else if (id == Diamond) {\n    //         require(\n    //             postCount[user] >= 20 && rewardTotal[user] >= 100,\n    //             \"Not qualified for diamond\"\n    //         );\n    //     }\n    //     _mint(user, id, 1, \"\");\n    // }\n}\n\n//       ERC-20/721 \n// safeTransferFrom(address from, address to, uint256 id, uint256 amount, bytes data)     ID     ERC-721 1, ERC-1155   \n\n// safeBatchTransferFrom(...)    (ID)       ERC-721/20 \n\n// balanceOfBatch(...)    /ID       ERC-721   \n\n// setApprovalForAll()          ERC-20 approve() , 1155 \n\n// uri(uint256 id)     ID  URL   ERC-721 tokenURI()\n",
  "sourcePath": "/home/mls/blockchain-toy-project/blockchain-toy-project/contracts/ERC_1155.sol",
  "compiler": {
    "name": "solc",
    "version": "0.8.21+commit.d9974bed.Emscripten.clang"
  },
  "schemaVersion": "3.4.16",
  "updatedAt": "2025-05-28T00:57:42.821Z",
  "devdoc": {
    "errors": {
      "ERC1155InsufficientBalance(address,uint256,uint256,uint256)": [
        {
          "details": "Indicates an error related to the current `balance` of a `sender`. Used in transfers.",
          "params": {
            "balance": "Current balance for the interacting account.",
            "needed": "Minimum amount required to perform a transfer.",
            "sender": "Address whose tokens are being transferred.",
            "tokenId": "Identifier number of a token."
          }
        }
      ],
      "ERC1155InvalidApprover(address)": [
        {
          "details": "Indicates a failure with the `approver` of a token to be approved. Used in approvals.",
          "params": {
            "approver": "Address initiating an approval operation."
          }
        }
      ],
      "ERC1155InvalidArrayLength(uint256,uint256)": [
        {
          "details": "Indicates an array length mismatch between ids and values in a safeBatchTransferFrom operation. Used in batch transfers.",
          "params": {
            "idsLength": "Length of the array of token identifiers",
            "valuesLength": "Length of the array of token amounts"
          }
        }
      ],
      "ERC1155InvalidOperator(address)": [
        {
          "details": "Indicates a failure with the `operator` to be approved. Used in approvals.",
          "params": {
            "operator": "Address that may be allowed to operate on tokens without being their owner."
          }
        }
      ],
      "ERC1155InvalidReceiver(address)": [
        {
          "details": "Indicates a failure with the token `receiver`. Used in transfers.",
          "params": {
            "receiver": "Address to which tokens are being transferred."
          }
        }
      ],
      "ERC1155InvalidSender(address)": [
        {
          "details": "Indicates a failure with the token `sender`. Used in transfers.",
          "params": {
            "sender": "Address whose tokens are being transferred."
          }
        }
      ],
      "ERC1155MissingApprovalForAll(address,address)": [
        {
          "details": "Indicates a failure with the `operator`s approval. Used in transfers.",
          "params": {
            "operator": "Address that may be allowed to operate on tokens without being their owner.",
            "owner": "Address of the current owner of a token."
          }
        }
      ]
    },
    "events": {
      "ApprovalForAll(address,address,bool)": {
        "details": "Emitted when `account` grants or revokes permission to `operator` to transfer their tokens, according to `approved`."
      },
      "TransferBatch(address,address,address,uint256[],uint256[])": {
        "details": "Equivalent to multiple {TransferSingle} events, where `operator`, `from` and `to` are the same for all transfers."
      },
      "TransferSingle(address,address,address,uint256,uint256)": {
        "details": "Emitted when `value` amount of tokens of type `id` are transferred from `from` to `to` by `operator`."
      },
      "URI(string,uint256)": {
        "details": "Emitted when the URI for token type `id` changes to `value`, if it is a non-programmatic URI. If an {URI} event was emitted for `id`, the standard https://eips.ethereum.org/EIPS/eip-1155#metadata-extensions[guarantees] that `value` will equal the value returned by {IERC1155MetadataURI-uri}."
      }
    },
    "kind": "dev",
    "methods": {
      "balanceOf(address,uint256)": {
        "details": "See {IERC1155-balanceOf}."
      },
      "balanceOfBatch(address[],uint256[])": {
        "details": "See {IERC1155-balanceOfBatch}. Requirements: - `accounts` and `ids` must have the same length."
      },
      "isApprovedForAll(address,address)": {
        "details": "See {IERC1155-isApprovedForAll}."
      },
      "safeBatchTransferFrom(address,address,uint256[],uint256[],bytes)": {
        "details": "See {IERC1155-safeBatchTransferFrom}."
      },
      "safeTransferFrom(address,address,uint256,uint256,bytes)": {
        "details": "See {IERC1155-safeTransferFrom}."
      },
      "setApprovalForAll(address,bool)": {
        "details": "See {IERC1155-setApprovalForAll}."
      },
      "supportsInterface(bytes4)": {
        "details": "See {IERC165-supportsInterface}."
      },
      "uri(uint256)": {
        "details": "See {IERC1155MetadataURI-uri}. This implementation returns the same URI for *all* token types. It relies on the token type ID substitution mechanism https://eips.ethereum.org/EIPS/eip-1155#metadata[defined in the ERC]. Clients calling this function must replace the `\\{id\\}` substring with the actual token type ID."
      }
    },
    "version": 1
  },
  "userdoc": {
    "kind": "user",
    "methods": {},
    "version": 1
  }
}