{
  "contractName": "ERC_20",
  "abi": [
    {
      "inputs": [],
      "stateMutability": "nonpayable",
      "type": "constructor"
    },
    {
      "inputs": [
        {
          "internalType": "address",
          "name": "spender",
          "type": "address"
        },
        {
          "internalType": "uint256",
          "name": "allowance",
          "type": "uint256"
        },
        {
          "internalType": "uint256",
          "name": "needed",
          "type": "uint256"
        }
      ],
      "name": "ERC20InsufficientAllowance",
      "type": "error"
    },
    {
      "inputs": [
        {
          "internalType": "address",
          "name": "sender",
          "type": "address"
        },
        {
          "internalType": "uint256",
          "name": "balance",
          "type": "uint256"
        },
        {
          "internalType": "uint256",
          "name": "needed",
          "type": "uint256"
        }
      ],
      "name": "ERC20InsufficientBalance",
      "type": "error"
    },
    {
      "inputs": [
        {
          "internalType": "address",
          "name": "approver",
          "type": "address"
        }
      ],
      "name": "ERC20InvalidApprover",
      "type": "error"
    },
    {
      "inputs": [
        {
          "internalType": "address",
          "name": "receiver",
          "type": "address"
        }
      ],
      "name": "ERC20InvalidReceiver",
      "type": "error"
    },
    {
      "inputs": [
        {
          "internalType": "address",
          "name": "sender",
          "type": "address"
        }
      ],
      "name": "ERC20InvalidSender",
      "type": "error"
    },
    {
      "inputs": [
        {
          "internalType": "address",
          "name": "spender",
          "type": "address"
        }
      ],
      "name": "ERC20InvalidSpender",
      "type": "error"
    },
    {
      "anonymous": false,
      "inputs": [
        {
          "indexed": true,
          "internalType": "address",
          "name": "owner",
          "type": "address"
        },
        {
          "indexed": true,
          "internalType": "address",
          "name": "spender",
          "type": "address"
        },
        {
          "indexed": false,
          "internalType": "uint256",
          "name": "value",
          "type": "uint256"
        }
      ],
      "name": "Approval",
      "type": "event"
    },
    {
      "anonymous": false,
      "inputs": [
        {
          "indexed": true,
          "internalType": "address",
          "name": "from",
          "type": "address"
        },
        {
          "indexed": true,
          "internalType": "address",
          "name": "to",
          "type": "address"
        },
        {
          "indexed": false,
          "internalType": "uint256",
          "name": "value",
          "type": "uint256"
        }
      ],
      "name": "Transfer",
      "type": "event"
    },
    {
      "inputs": [
        {
          "internalType": "address",
          "name": "owner",
          "type": "address"
        },
        {
          "internalType": "address",
          "name": "spender",
          "type": "address"
        }
      ],
      "name": "allowance",
      "outputs": [
        {
          "internalType": "uint256",
          "name": "",
          "type": "uint256"
        }
      ],
      "stateMutability": "view",
      "type": "function"
    },
    {
      "inputs": [
        {
          "internalType": "address",
          "name": "spender",
          "type": "address"
        },
        {
          "internalType": "uint256",
          "name": "value",
          "type": "uint256"
        }
      ],
      "name": "approve",
      "outputs": [
        {
          "internalType": "bool",
          "name": "",
          "type": "bool"
        }
      ],
      "stateMutability": "nonpayable",
      "type": "function"
    },
    {
      "inputs": [
        {
          "internalType": "address",
          "name": "account",
          "type": "address"
        }
      ],
      "name": "balanceOf",
      "outputs": [
        {
          "internalType": "uint256",
          "name": "",
          "type": "uint256"
        }
      ],
      "stateMutability": "view",
      "type": "function"
    },
    {
      "inputs": [],
      "name": "caAddress",
      "outputs": [
        {
          "internalType": "address",
          "name": "",
          "type": "address"
        }
      ],
      "stateMutability": "view",
      "type": "function"
    },
    {
      "inputs": [],
      "name": "decimals",
      "outputs": [
        {
          "internalType": "uint8",
          "name": "",
          "type": "uint8"
        }
      ],
      "stateMutability": "view",
      "type": "function"
    },
    {
      "inputs": [],
      "name": "name",
      "outputs": [
        {
          "internalType": "string",
          "name": "",
          "type": "string"
        }
      ],
      "stateMutability": "view",
      "type": "function"
    },
    {
      "inputs": [],
      "name": "owner",
      "outputs": [
        {
          "internalType": "address",
          "name": "",
          "type": "address"
        }
      ],
      "stateMutability": "view",
      "type": "function"
    },
    {
      "inputs": [],
      "name": "symbol",
      "outputs": [
        {
          "internalType": "string",
          "name": "",
          "type": "string"
        }
      ],
      "stateMutability": "view",
      "type": "function"
    },
    {
      "inputs": [],
      "name": "totalSupply",
      "outputs": [
        {
          "internalType": "uint256",
          "name": "",
          "type": "uint256"
        }
      ],
      "stateMutability": "view",
      "type": "function"
    },
    {
      "inputs": [
        {
          "internalType": "address",
          "name": "to",
          "type": "address"
        },
        {
          "internalType": "uint256",
          "name": "value",
          "type": "uint256"
        }
      ],
      "name": "transfer",
      "outputs": [
        {
          "internalType": "bool",
          "name": "",
          "type": "bool"
        }
      ],
      "stateMutability": "nonpayable",
      "type": "function"
    },
    {
      "inputs": [
        {
          "internalType": "address",
          "name": "from",
          "type": "address"
        },
        {
          "internalType": "address",
          "name": "to",
          "type": "address"
        },
        {
          "internalType": "uint256",
          "name": "value",
          "type": "uint256"
        }
      ],
      "name": "transferFrom",
      "outputs": [
        {
          "internalType": "bool",
          "name": "",
          "type": "bool"
        }
      ],
      "stateMutability": "nonpayable",
      "type": "function"
    },
    {
      "inputs": [
        {
          "internalType": "address",
          "name": "_ca",
          "type": "address"
        }
      ],
      "name": "approveForCA",
      "outputs": [],
      "stateMutability": "nonpayable",
      "type": "function"
    },
    {
      "inputs": [
        {
          "internalType": "address",
          "name": "to",
          "type": "address"
        },
        {
          "internalType": "uint256",
          "name": "value",
          "type": "uint256"
        }
      ],
      "name": "minting",
      "outputs": [],
      "stateMutability": "nonpayable",
      "type": "function"
    },
    {
      "inputs": [],
      "name": "getowner",
      "outputs": [
        {
          "internalType": "address",
          "name": "",
          "type": "address"
        }
      ],
      "stateMutability": "view",
      "type": "function"
    }
  ],
  "bytecode": "0x608060405234801562000010575f80fd5b506040518060400160405280600f81526020017f5374756479546f6b656e4b69726f7300000000000000000000000000000000008152506040518060400160405280600381526020017f53544b000000000000000000000000000000000000000000000000000000000081525081600390816200008e919062000668565b508060049081620000a0919062000668565b5050503360055f6101000a81548173ffffffffffffffffffffffffffffffffffffffff021916908373ffffffffffffffffffffffffffffffffffffffff1602179055505f620000f46200014e60201b60201c565b600a620001029190620008d5565b620f424062000112919062000925565b90506200014760055f9054906101000a900473ffffffffffffffffffffffffffffffffffffffff16826200015660201b60201c565b5062000a6e565b5f6012905090565b5f73ffffffffffffffffffffffffffffffffffffffff168273ffffffffffffffffffffffffffffffffffffffff1603620001c9575f6040517fec442f05000000000000000000000000000000000000000000000000000000008152600401620001c09190620009b2565b60405180910390fd5b620001dc5f8383620001e060201b60201c565b5050565b5f73ffffffffffffffffffffffffffffffffffffffff168373ffffffffffffffffffffffffffffffffffffffff160362000234578060025f828254620002279190620009cd565b9250508190555062000305565b5f805f8573ffffffffffffffffffffffffffffffffffffffff1673ffffffffffffffffffffffffffffffffffffffff1681526020019081526020015f2054905081811015620002c0578381836040517fe450d38c000000000000000000000000000000000000000000000000000000008152600401620002b79392919062000a18565b60405180910390fd5b8181035f808673ffffffffffffffffffffffffffffffffffffffff1673ffffffffffffffffffffffffffffffffffffffff1681526020019081526020015f2081905550505b5f73ffffffffffffffffffffffffffffffffffffffff168273ffffffffffffffffffffffffffffffffffffffff16036200034e578060025f828254039250508190555062000398565b805f808473ffffffffffffffffffffffffffffffffffffffff1673ffffffffffffffffffffffffffffffffffffffff1681526020019081526020015f205f82825401925050819055505b8173ffffffffffffffffffffffffffffffffffffffff168373ffffffffffffffffffffffffffffffffffffffff167fddf252ad1be2c89b69c2b068fc378daa952ba7f163c4a11628f55a4df523b3ef83604051620003f7919062000a53565b60405180910390a3505050565b5f81519050919050565b7f4e487b71000000000000000000000000000000000000000000000000000000005f52604160045260245ffd5b7f4e487b71000000000000000000000000000000000000000000000000000000005f52602260045260245ffd5b5f60028204905060018216806200048057607f821691505b6020821081036200049657620004956200043b565b5b50919050565b5f819050815f5260205f209050919050565b5f6020601f8301049050919050565b5f82821b905092915050565b5f60088302620004fa7fffffffffffffffffffffffffffffffffffffffffffffffffffffffffffffffff82620004bd565b620005068683620004bd565b95508019841693508086168417925050509392505050565b5f819050919050565b5f819050919050565b5f620005506200054a62000544846200051e565b62000527565b6200051e565b9050919050565b5f819050919050565b6200056b8362000530565b620005836200057a8262000557565b848454620004c9565b825550505050565b5f90565b620005996200058b565b620005a681848462000560565b505050565b5b81811015620005cd57620005c15f826200058f565b600181019050620005ac565b5050565b601f8211156200061c57620005e6816200049c565b620005f184620004ae565b8101602085101562000601578190505b620006196200061085620004ae565b830182620005ab565b50505b505050565b5f82821c905092915050565b5f6200063e5f198460080262000621565b1980831691505092915050565b5f6200065883836200062d565b9150826002028217905092915050565b620006738262000404565b67ffffffffffffffff8111156200068f576200068e6200040e565b5b6200069b825462000468565b620006a8828285620005d1565b5f60209050601f831160018114620006de575f8415620006c9578287015190505b620006d585826200064b565b86555062000744565b601f198416620006ee866200049c565b5f5b828110156200071757848901518255600182019150602085019450602081019050620006f0565b8683101562000737578489015162000733601f8916826200062d565b8355505b6001600288020188555050505b505050505050565b7f4e487b71000000000000000000000000000000000000000000000000000000005f52601160045260245ffd5b5f8160011c9050919050565b5f808291508390505b6001851115620007d657808604811115620007ae57620007ad6200074c565b5b6001851615620007be5780820291505b8081029050620007ce8562000779565b94506200078e565b94509492505050565b5f82620007f05760019050620008c2565b81620007ff575f9050620008c2565b8160018114620008185760028114620008235762000859565b6001915050620008c2565b60ff8411156200083857620008376200074c565b5b8360020a9150848211156200085257620008516200074c565b5b50620008c2565b5060208310610133831016604e8410600b8410161715620008935782820a9050838111156200088d576200088c6200074c565b5b620008c2565b620008a2848484600162000785565b92509050818404811115620008bc57620008bb6200074c565b5b81810290505b9392505050565b5f60ff82169050919050565b5f620008e1826200051e565b9150620008ee83620008c9565b92506200091d7fffffffffffffffffffffffffffffffffffffffffffffffffffffffffffffffff8484620007df565b905092915050565b5f62000931826200051e565b91506200093e836200051e565b92508282026200094e816200051e565b915082820484148315176200096857620009676200074c565b5b5092915050565b5f73ffffffffffffffffffffffffffffffffffffffff82169050919050565b5f6200099a826200096f565b9050919050565b620009ac816200098e565b82525050565b5f602082019050620009c75f830184620009a1565b92915050565b5f620009d9826200051e565b9150620009e6836200051e565b925082820190508082111562000a015762000a006200074c565b5b92915050565b62000a12816200051e565b82525050565b5f60608201905062000a2d5f830186620009a1565b62000a3c602083018562000a07565b62000a4b604083018462000a07565b949350505050565b5f60208201905062000a685f83018462000a07565b92915050565b6112488062000a7c5f395ff3fe608060405234801561000f575f80fd5b50600436106100e8575f3560e01c806370a082311161008a578063a9059cbb11610064578063a9059cbb1461024a578063dd62ed3e1461027a578063e4f17c07146102aa578063fe0174bd146102c8576100e8565b806370a08231146101de5780638da5cb5b1461020e57806395d89b411461022c576100e8565b8063233ebc8b116100c6578063233ebc8b1461015857806323b872dd1461017457806327c948ec146101a4578063313ce567146101c0576100e8565b806306fdde03146100ec578063095ea7b31461010a57806318160ddd1461013a575b5f80fd5b6100f46102e6565b6040516101019190610df1565b60405180910390f35b610124600480360381019061011f9190610ea2565b610376565b6040516101319190610efa565b60405180910390f35b610142610398565b60405161014f9190610f22565b60405180910390f35b610172600480360381019061016d9190610ea2565b6103a1565b005b61018e60048036038101906101899190610f3b565b61043e565b60405161019b9190610efa565b60405180910390f35b6101be60048036038101906101b99190610f8b565b61046c565b005b6101c8610571565b6040516101d59190610fd1565b60405180910390f35b6101f860048036038101906101f39190610f8b565b610579565b6040516102059190610f22565b60405180910390f35b6102166105be565b6040516102239190610ff9565b60405180910390f35b6102346105e3565b6040516102419190610df1565b60405180910390f35b610264600480360381019061025f9190610ea2565b610673565b6040516102719190610efa565b60405180910390f35b610294600480360381019061028f9190611012565b610695565b6040516102a19190610f22565b60405180910390f35b6102b2610717565b6040516102bf9190610ff9565b60405180910390f35b6102d061073c565b6040516102dd9190610ff9565b60405180910390f35b6060600380546102f59061107d565b80601f01602080910402602001604051908101604052809291908181526020018280546103219061107d565b801561036c5780601f106103435761010080835404028352916020019161036c565b820191905f5260205f20905b81548152906001019060200180831161034f57829003601f168201915b5050505050905090565b5f80610380610764565b905061038d81858561076b565b600191505092915050565b5f600254905090565b60055f9054906101000a900473ffffffffffffffffffffffffffffffffffffffff1673ffffffffffffffffffffffffffffffffffffffff163373ffffffffffffffffffffffffffffffffffffffff1614610430576040517f08c379a0000000000000000000000000000000000000000000000000000000008152600401610427906110f7565b60405180910390fd5b61043a828261077d565b5050565b5f80610448610764565b90506104558582856107fc565b61046085858561088f565b60019150509392505050565b5f73ffffffffffffffffffffffffffffffffffffffff1660065f9054906101000a900473ffffffffffffffffffffffffffffffffffffffff1673ffffffffffffffffffffffffffffffffffffffff16146104fb576040517f08c379a00000000000000000000000000000000000000000000000000000000081526004016104f29061115f565b60405180910390fd5b8060065f6101000a81548173ffffffffffffffffffffffffffffffffffffffff021916908373ffffffffffffffffffffffffffffffffffffffff16021790555061056e60055f9054906101000a900473ffffffffffffffffffffffffffffffffffffffff1682610569610398565b61076b565b50565b5f6012905090565b5f805f8373ffffffffffffffffffffffffffffffffffffffff1673ffffffffffffffffffffffffffffffffffffffff1681526020019081526020015f20549050919050565b60055f9054906101000a900473ffffffffffffffffffffffffffffffffffffffff1681565b6060600480546105f29061107d565b80601f016020809104026020016040519081016040528092919081815260200182805461061e9061107d565b80156106695780601f1061064057610100808354040283529160200191610669565b820191905f5260205f20905b81548152906001019060200180831161064c57829003601f168201915b5050505050905090565b5f8061067d610764565b905061068a81858561088f565b600191505092915050565b5f60015f8473ffffffffffffffffffffffffffffffffffffffff1673ffffffffffffffffffffffffffffffffffffffff1681526020019081526020015f205f8373ffffffffffffffffffffffffffffffffffffffff1673ffffffffffffffffffffffffffffffffffffffff1681526020019081526020015f2054905092915050565b60065f9054906101000a900473ffffffffffffffffffffffffffffffffffffffff1681565b5f60055f9054906101000a900473ffffffffffffffffffffffffffffffffffffffff16905090565b5f33905090565b610778838383600161097f565b505050565b5f73ffffffffffffffffffffffffffffffffffffffff168273ffffffffffffffffffffffffffffffffffffffff16036107ed575f6040517fec442f050000000000000000000000000000000000000000000000000000000081526004016107e49190610ff9565b60405180910390fd5b6107f85f8383610b4e565b5050565b5f6108078484610695565b90507fffffffffffffffffffffffffffffffffffffffffffffffffffffffffffffffff811015610889578181101561087a578281836040517ffb8f41b20000000000000000000000000000000000000000000000000000000081526004016108719392919061117d565b60405180910390fd5b61088884848484035f61097f565b5b50505050565b5f73ffffffffffffffffffffffffffffffffffffffff168373ffffffffffffffffffffffffffffffffffffffff16036108ff575f6040517f96c6fd1e0000000000000000000000000000000000000000000000000000000081526004016108f69190610ff9565b60405180910390fd5b5f73ffffffffffffffffffffffffffffffffffffffff168273ffffffffffffffffffffffffffffffffffffffff160361096f575f6040517fec442f050000000000000000000000000000000000000000000000000000000081526004016109669190610ff9565b60405180910390fd5b61097a838383610b4e565b505050565b5f73ffffffffffffffffffffffffffffffffffffffff168473ffffffffffffffffffffffffffffffffffffffff16036109ef575f6040517fe602df050000000000000000000000000000000000000000000000000000000081526004016109e69190610ff9565b60405180910390fd5b5f73ffffffffffffffffffffffffffffffffffffffff168373ffffffffffffffffffffffffffffffffffffffff1603610a5f575f6040517f94280d62000000000000000000000000000000000000000000000000000000008152600401610a569190610ff9565b60405180910390fd5b8160015f8673ffffffffffffffffffffffffffffffffffffffff1673ffffffffffffffffffffffffffffffffffffffff1681526020019081526020015f205f8573ffffffffffffffffffffffffffffffffffffffff1673ffffffffffffffffffffffffffffffffffffffff1681526020019081526020015f20819055508015610b48578273ffffffffffffffffffffffffffffffffffffffff168473ffffffffffffffffffffffffffffffffffffffff167f8c5be1e5ebec7d5bd14f71427d1e84f3dd0314c0f7b2291e5b200ac8c7c3b92584604051610b3f9190610f22565b60405180910390a35b50505050565b5f73ffffffffffffffffffffffffffffffffffffffff168373ffffffffffffffffffffffffffffffffffffffff1603610b9e578060025f828254610b9291906111df565b92505081905550610c6c565b5f805f8573ffffffffffffffffffffffffffffffffffffffff1673ffffffffffffffffffffffffffffffffffffffff1681526020019081526020015f2054905081811015610c27578381836040517fe450d38c000000000000000000000000000000000000000000000000000000008152600401610c1e9392919061117d565b60405180910390fd5b8181035f808673ffffffffffffffffffffffffffffffffffffffff1673ffffffffffffffffffffffffffffffffffffffff1681526020019081526020015f2081905550505b5f73ffffffffffffffffffffffffffffffffffffffff168273ffffffffffffffffffffffffffffffffffffffff1603610cb3578060025f8282540392505081905550610cfd565b805f808473ffffffffffffffffffffffffffffffffffffffff1673ffffffffffffffffffffffffffffffffffffffff1681526020019081526020015f205f82825401925050819055505b8173ffffffffffffffffffffffffffffffffffffffff168373ffffffffffffffffffffffffffffffffffffffff167fddf252ad1be2c89b69c2b068fc378daa952ba7f163c4a11628f55a4df523b3ef83604051610d5a9190610f22565b60405180910390a3505050565b5f81519050919050565b5f82825260208201905092915050565b5f5b83811015610d9e578082015181840152602081019050610d83565b5f8484015250505050565b5f601f19601f8301169050919050565b5f610dc382610d67565b610dcd8185610d71565b9350610ddd818560208601610d81565b610de681610da9565b840191505092915050565b5f6020820190508181035f830152610e098184610db9565b905092915050565b5f80fd5b5f73ffffffffffffffffffffffffffffffffffffffff82169050919050565b5f610e3e82610e15565b9050919050565b610e4e81610e34565b8114610e58575f80fd5b50565b5f81359050610e6981610e45565b92915050565b5f819050919050565b610e8181610e6f565b8114610e8b575f80fd5b50565b5f81359050610e9c81610e78565b92915050565b5f8060408385031215610eb857610eb7610e11565b5b5f610ec585828601610e5b565b9250506020610ed685828601610e8e565b9150509250929050565b5f8115159050919050565b610ef481610ee0565b82525050565b5f602082019050610f0d5f830184610eeb565b92915050565b610f1c81610e6f565b82525050565b5f602082019050610f355f830184610f13565b92915050565b5f805f60608486031215610f5257610f51610e11565b5b5f610f5f86828701610e5b565b9350506020610f7086828701610e5b565b9250506040610f8186828701610e8e565b9150509250925092565b5f60208284031215610fa057610f9f610e11565b5b5f610fad84828501610e5b565b91505092915050565b5f60ff82169050919050565b610fcb81610fb6565b82525050565b5f602082019050610fe45f830184610fc2565b92915050565b610ff381610e34565b82525050565b5f60208201905061100c5f830184610fea565b92915050565b5f806040838503121561102857611027610e11565b5b5f61103585828601610e5b565b925050602061104685828601610e5b565b9150509250929050565b7f4e487b71000000000000000000000000000000000000000000000000000000005f52602260045260245ffd5b5f600282049050600182168061109457607f821691505b6020821081036110a7576110a6611050565b5b50919050565b7f6f6e6c794f776e657200000000000000000000000000000000000000000000005f82015250565b5f6110e1600983610d71565b91506110ec826110ad565b602082019050919050565b5f6020820190508181035f83015261110e816110d5565b9050919050565b7f434120616c7265616479207365740000000000000000000000000000000000005f82015250565b5f611149600e83610d71565b915061115482611115565b602082019050919050565b5f6020820190508181035f8301526111768161113d565b9050919050565b5f6060820190506111905f830186610fea565b61119d6020830185610f13565b6111aa6040830184610f13565b949350505050565b7f4e487b71000000000000000000000000000000000000000000000000000000005f52601160045260245ffd5b5f6111e982610e6f565b91506111f483610e6f565b925082820190508082111561120c5761120b6111b2565b5b9291505056fea26469706673582212209cbf016250ef55e73e76c81d066496b1479080b85fe053ef3ff52e598b711b0564736f6c63430008150033",
  "immutableReferences": {},
  "source": "// SPDX-License-Identifier: MIT\npragma solidity ^0.8.20;\n\nimport \"@openzeppelin/contracts/token/ERC20/ERC20.sol\";\n\ncontract ERC_20 is ERC20 {\n    address public owner;\n    address public caAddress;\n\n    constructor() ERC20(\"StudyTokenKiros\", \"STK\") {\n        owner = msg.sender;\n        uint256 initialSupply = 1_000_000 * 10 ** decimals();\n        _mint(owner, initialSupply);\n    }\n    modifier onlyOwner() {\n        require(msg.sender == owner, \"onlyOwner\");\n        _;\n    }\n\n    function approveForCA(address _ca) public {\n        //\n        require(caAddress == address(0), \"CA already set\");\n        caAddress = _ca;\n        _approve(owner, _ca, totalSupply());\n    }\n\n    function minting(address to, uint256 value) public onlyOwner {\n        // \n        _mint(to, value);\n    }\n\n    function getowner() public view returns (address) {\n        return owner;\n    }\n}\n",
  "sourcePath": "/home/mls/blockchain-toy-project/blockchain-toy-project/contracts/ERC_20.sol",
  "compiler": {
    "name": "solc",
    "version": "0.8.21+commit.d9974bed.Emscripten.clang"
  },
  "schemaVersion": "3.4.16",
  "updatedAt": "2025-05-28T00:57:42.828Z",
  "devdoc": {
    "errors": {
      "ERC20InsufficientAllowance(address,uint256,uint256)": [
        {
          "details": "Indicates a failure with the `spender`s `allowance`. Used in transfers.",
          "params": {
            "allowance": "Amount of tokens a `spender` is allowed to operate with.",
            "needed": "Minimum amount required to perform a transfer.",
            "spender": "Address that may be allowed to operate on tokens without being their owner."
          }
        }
      ],
      "ERC20InsufficientBalance(address,uint256,uint256)": [
        {
          "details": "Indicates an error related to the current `balance` of a `sender`. Used in transfers.",
          "params": {
            "balance": "Current balance for the interacting account.",
            "needed": "Minimum amount required to perform a transfer.",
            "sender": "Address whose tokens are being transferred."
          }
        }
      ],
      "ERC20InvalidApprover(address)": [
        {
          "details": "Indicates a failure with the `approver` of a token to be approved. Used in approvals.",
          "params": {
            "approver": "Address initiating an approval operation."
          }
        }
      ],
      "ERC20InvalidReceiver(address)": [
        {
          "details": "Indicates a failure with the token `receiver`. Used in transfers.",
          "params": {
            "receiver": "Address to which tokens are being transferred."
          }
        }
      ],
      "ERC20InvalidSender(address)": [
        {
          "details": "Indicates a failure with the token `sender`. Used in transfers.",
          "params": {
            "sender": "Address whose tokens are being transferred."
          }
        }
      ],
      "ERC20InvalidSpender(address)": [
        {
          "details": "Indicates a failure with the `spender` to be approved. Used in approvals.",
          "params": {
            "spender": "Address that may be allowed to operate on tokens without being their owner."
          }
        }
      ]
    },
    "events": {
      "Approval(address,address,uint256)": {
        "details": "Emitted when the allowance of a `spender` for an `owner` is set by a call to {approve}. `value` is the new allowance."
      },
      "Transfer(address,address,uint256)": {
        "details": "Emitted when `value` tokens are moved from one account (`from`) to another (`to`). Note that `value` may be zero."
      }
    },
    "kind": "dev",
    "methods": {
      "allowance(address,address)": {
        "details": "See {IERC20-allowance}."
      },
      "approve(address,uint256)": {
        "details": "See {IERC20-approve}. NOTE: If `value` is the maximum `uint256`, the allowance is not updated on `transferFrom`. This is semantically equivalent to an infinite approval. Requirements: - `spender` cannot be the zero address."
      },
      "balanceOf(address)": {
        "details": "See {IERC20-balanceOf}."
      },
      "decimals()": {
        "details": "Returns the number of decimals used to get its user representation. For example, if `decimals` equals `2`, a balance of `505` tokens should be displayed to a user as `5.05` (`505 / 10 ** 2`). Tokens usually opt for a value of 18, imitating the relationship between Ether and Wei. This is the default value returned by this function, unless it's overridden. NOTE: This information is only used for _display_ purposes: it in no way affects any of the arithmetic of the contract, including {IERC20-balanceOf} and {IERC20-transfer}."
      },
      "name()": {
        "details": "Returns the name of the token."
      },
      "symbol()": {
        "details": "Returns the symbol of the token, usually a shorter version of the name."
      },
      "totalSupply()": {
        "details": "See {IERC20-totalSupply}."
      },
      "transfer(address,uint256)": {
        "details": "See {IERC20-transfer}. Requirements: - `to` cannot be the zero address. - the caller must have a balance of at least `value`."
      },
      "transferFrom(address,address,uint256)": {
        "details": "See {IERC20-transferFrom}. Skips emitting an {Approval} event indicating an allowance update. This is not required by the ERC. See {xref-ERC20-_approve-address-address-uint256-bool-}[_approve]. NOTE: Does not update the allowance if the current allowance is the maximum `uint256`. Requirements: - `from` and `to` cannot be the zero address. - `from` must have a balance of at least `value`. - the caller must have allowance for ``from``'s tokens of at least `value`."
      }
    },
    "version": 1
  },
  "userdoc": {
    "kind": "user",
    "methods": {},
    "version": 1
  }
}