{
  "contractName": "BaseballNFT",
  "abi": [
    {
      "inputs": [
        {
          "internalType": "string",
          "name": "_name",
          "type": "string"
        },
        {
          "internalType": "string",
          "name": "_symbol",
          "type": "string"
        }
      ],
      "stateMutability": "nonpayable",
      "type": "constructor"
    },
    {
      "inputs": [
        {
          "internalType": "address",
          "name": "sender",
          "type": "address"
        },
        {
          "internalType": "uint256",
          "name": "tokenId",
          "type": "uint256"
        },
        {
          "internalType": "address",
          "name": "owner",
          "type": "address"
        }
      ],
      "name": "ERC721IncorrectOwner",
      "type": "error"
    },
    {
      "inputs": [
        {
          "internalType": "address",
          "name": "operator",
          "type": "address"
        },
        {
          "internalType": "uint256",
          "name": "tokenId",
          "type": "uint256"
        }
      ],
      "name": "ERC721InsufficientApproval",
      "type": "error"
    },
    {
      "inputs": [
        {
          "internalType": "address",
          "name": "approver",
          "type": "address"
        }
      ],
      "name": "ERC721InvalidApprover",
      "type": "error"
    },
    {
      "inputs": [
        {
          "internalType": "address",
          "name": "operator",
          "type": "address"
        }
      ],
      "name": "ERC721InvalidOperator",
      "type": "error"
    },
    {
      "inputs": [
        {
          "internalType": "address",
          "name": "owner",
          "type": "address"
        }
      ],
      "name": "ERC721InvalidOwner",
      "type": "error"
    },
    {
      "inputs": [
        {
          "internalType": "address",
          "name": "receiver",
          "type": "address"
        }
      ],
      "name": "ERC721InvalidReceiver",
      "type": "error"
    },
    {
      "inputs": [
        {
          "internalType": "address",
          "name": "sender",
          "type": "address"
        }
      ],
      "name": "ERC721InvalidSender",
      "type": "error"
    },
    {
      "inputs": [
        {
          "internalType": "uint256",
          "name": "tokenId",
          "type": "uint256"
        }
      ],
      "name": "ERC721NonexistentToken",
      "type": "error"
    },
    {
      "anonymous": false,
      "inputs": [
        {
          "indexed": true,
          "internalType": "address",
          "name": "owner",
          "type": "address"
        },
        {
          "indexed": true,
          "internalType": "address",
          "name": "approved",
          "type": "address"
        },
        {
          "indexed": true,
          "internalType": "uint256",
          "name": "tokenId",
          "type": "uint256"
        }
      ],
      "name": "Approval",
      "type": "event"
    },
    {
      "anonymous": false,
      "inputs": [
        {
          "indexed": true,
          "internalType": "address",
          "name": "owner",
          "type": "address"
        },
        {
          "indexed": true,
          "internalType": "address",
          "name": "operator",
          "type": "address"
        },
        {
          "indexed": false,
          "internalType": "bool",
          "name": "approved",
          "type": "bool"
        }
      ],
      "name": "ApprovalForAll",
      "type": "event"
    },
    {
      "anonymous": false,
      "inputs": [
        {
          "indexed": true,
          "internalType": "address",
          "name": "from",
          "type": "address"
        },
        {
          "indexed": true,
          "internalType": "address",
          "name": "to",
          "type": "address"
        },
        {
          "indexed": true,
          "internalType": "uint256",
          "name": "tokenId",
          "type": "uint256"
        }
      ],
      "name": "Transfer",
      "type": "event"
    },
    {
      "inputs": [
        {
          "internalType": "address",
          "name": "to",
          "type": "address"
        },
        {
          "internalType": "uint256",
          "name": "tokenId",
          "type": "uint256"
        }
      ],
      "name": "approve",
      "outputs": [],
      "stateMutability": "nonpayable",
      "type": "function"
    },
    {
      "inputs": [
        {
          "internalType": "address",
          "name": "owner",
          "type": "address"
        }
      ],
      "name": "balanceOf",
      "outputs": [
        {
          "internalType": "uint256",
          "name": "",
          "type": "uint256"
        }
      ],
      "stateMutability": "view",
      "type": "function"
    },
    {
      "inputs": [
        {
          "internalType": "uint256",
          "name": "tokenId",
          "type": "uint256"
        }
      ],
      "name": "getApproved",
      "outputs": [
        {
          "internalType": "address",
          "name": "",
          "type": "address"
        }
      ],
      "stateMutability": "view",
      "type": "function"
    },
    {
      "inputs": [
        {
          "internalType": "address",
          "name": "owner",
          "type": "address"
        },
        {
          "internalType": "address",
          "name": "operator",
          "type": "address"
        }
      ],
      "name": "isApprovedForAll",
      "outputs": [
        {
          "internalType": "bool",
          "name": "",
          "type": "bool"
        }
      ],
      "stateMutability": "view",
      "type": "function"
    },
    {
      "inputs": [
        {
          "internalType": "uint256",
          "name": "tokenId",
          "type": "uint256"
        }
      ],
      "name": "minted",
      "outputs": [
        {
          "internalType": "bool",
          "name": "",
          "type": "bool"
        }
      ],
      "stateMutability": "view",
      "type": "function"
    },
    {
      "inputs": [],
      "name": "name",
      "outputs": [
        {
          "internalType": "string",
          "name": "",
          "type": "string"
        }
      ],
      "stateMutability": "view",
      "type": "function"
    },
    {
      "inputs": [],
      "name": "owner",
      "outputs": [
        {
          "internalType": "address",
          "name": "",
          "type": "address"
        }
      ],
      "stateMutability": "view",
      "type": "function"
    },
    {
      "inputs": [
        {
          "internalType": "uint256",
          "name": "tokenId",
          "type": "uint256"
        }
      ],
      "name": "ownerOf",
      "outputs": [
        {
          "internalType": "address",
          "name": "",
          "type": "address"
        }
      ],
      "stateMutability": "view",
      "type": "function"
    },
    {
      "inputs": [
        {
          "internalType": "address",
          "name": "from",
          "type": "address"
        },
        {
          "internalType": "address",
          "name": "to",
          "type": "address"
        },
        {
          "internalType": "uint256",
          "name": "tokenId",
          "type": "uint256"
        }
      ],
      "name": "safeTransferFrom",
      "outputs": [],
      "stateMutability": "nonpayable",
      "type": "function"
    },
    {
      "inputs": [
        {
          "internalType": "address",
          "name": "from",
          "type": "address"
        },
        {
          "internalType": "address",
          "name": "to",
          "type": "address"
        },
        {
          "internalType": "uint256",
          "name": "tokenId",
          "type": "uint256"
        },
        {
          "internalType": "bytes",
          "name": "data",
          "type": "bytes"
        }
      ],
      "name": "safeTransferFrom",
      "outputs": [],
      "stateMutability": "nonpayable",
      "type": "function"
    },
    {
      "inputs": [
        {
          "internalType": "address",
          "name": "operator",
          "type": "address"
        },
        {
          "internalType": "bool",
          "name": "approved",
          "type": "bool"
        }
      ],
      "name": "setApprovalForAll",
      "outputs": [],
      "stateMutability": "nonpayable",
      "type": "function"
    },
    {
      "inputs": [
        {
          "internalType": "bytes4",
          "name": "interfaceId",
          "type": "bytes4"
        }
      ],
      "name": "supportsInterface",
      "outputs": [
        {
          "internalType": "bool",
          "name": "",
          "type": "bool"
        }
      ],
      "stateMutability": "view",
      "type": "function"
    },
    {
      "inputs": [],
      "name": "symbol",
      "outputs": [
        {
          "internalType": "string",
          "name": "",
          "type": "string"
        }
      ],
      "stateMutability": "view",
      "type": "function"
    },
    {
      "inputs": [
        {
          "internalType": "address",
          "name": "from",
          "type": "address"
        },
        {
          "internalType": "address",
          "name": "to",
          "type": "address"
        },
        {
          "internalType": "uint256",
          "name": "tokenId",
          "type": "uint256"
        }
      ],
      "name": "transferFrom",
      "outputs": [],
      "stateMutability": "nonpayable",
      "type": "function"
    },
    {
      "inputs": [
        {
          "internalType": "uint256",
          "name": "tokenId",
          "type": "uint256"
        }
      ],
      "name": "minting",
      "outputs": [],
      "stateMutability": "nonpayable",
      "type": "function"
    },
    {
      "inputs": [
        {
          "internalType": "uint256",
          "name": "tokenId",
          "type": "uint256"
        }
      ],
      "name": "purchase",
      "outputs": [],
      "stateMutability": "payable",
      "type": "function"
    },
    {
      "inputs": [
        {
          "internalType": "uint256",
          "name": "tokenId",
          "type": "uint256"
        }
      ],
      "name": "tokenURI",
      "outputs": [
        {
          "internalType": "string",
          "name": "",
          "type": "string"
        }
      ],
      "stateMutability": "view",
      "type": "function"
    },
    {
      "inputs": [],
      "name": "getTotalSupply",
      "outputs": [
        {
          "internalType": "uint256",
          "name": "",
          "type": "uint256"
        }
      ],
      "stateMutability": "view",
      "type": "function"
    },
    {
      "inputs": [],
      "name": "getAllTokenIds",
      "outputs": [
        {
          "internalType": "uint256[]",
          "name": "",
          "type": "uint256[]"
        }
      ],
      "stateMutability": "view",
      "type": "function"
    }
  ],
  "bytecode": "0x60806040525f60085534801562000014575f80fd5b5060405162002e3138038062002e3183398181016040528101906200003a91906200022e565b8181815f90816200004c9190620004e8565b5080600190816200005e9190620004e8565b5050503360065f6101000a81548173ffffffffffffffffffffffffffffffffffffffff021916908373ffffffffffffffffffffffffffffffffffffffff1602179055505050620005cc565b5f604051905090565b5f80fd5b5f80fd5b5f80fd5b5f80fd5b5f601f19601f8301169050919050565b7f4e487b71000000000000000000000000000000000000000000000000000000005f52604160045260245ffd5b6200010a82620000c2565b810181811067ffffffffffffffff821117156200012c576200012b620000d2565b5b80604052505050565b5f62000140620000a9565b90506200014e8282620000ff565b919050565b5f67ffffffffffffffff82111562000170576200016f620000d2565b5b6200017b82620000c2565b9050602081019050919050565b5f5b83811015620001a75780820151818401526020810190506200018a565b5f8484015250505050565b5f620001c8620001c28462000153565b62000135565b905082815260208101848484011115620001e757620001e6620000be565b5b620001f484828562000188565b509392505050565b5f82601f830112620002135762000212620000ba565b5b815162000225848260208601620001b2565b91505092915050565b5f8060408385031215620002475762000246620000b2565b5b5f83015167ffffffffffffffff811115620002675762000266620000b6565b5b6200027585828601620001fc565b925050602083015167ffffffffffffffff811115620002995762000298620000b6565b5b620002a785828601620001fc565b9150509250929050565b5f81519050919050565b7f4e487b71000000000000000000000000000000000000000000000000000000005f52602260045260245ffd5b5f60028204905060018216806200030057607f821691505b602082108103620003165762000315620002bb565b5b50919050565b5f819050815f5260205f209050919050565b5f6020601f8301049050919050565b5f82821b905092915050565b5f600883026200037a7fffffffffffffffffffffffffffffffffffffffffffffffffffffffffffffffff826200033d565b6200038686836200033d565b95508019841693508086168417925050509392505050565b5f819050919050565b5f819050919050565b5f620003d0620003ca620003c4846200039e565b620003a7565b6200039e565b9050919050565b5f819050919050565b620003eb83620003b0565b62000403620003fa82620003d7565b84845462000349565b825550505050565b5f90565b620004196200040b565b62000426818484620003e0565b505050565b5b818110156200044d57620004415f826200040f565b6001810190506200042c565b5050565b601f8211156200049c5762000466816200031c565b62000471846200032e565b8101602085101562000481578190505b6200049962000490856200032e565b8301826200042b565b50505b505050565b5f82821c905092915050565b5f620004be5f1984600802620004a1565b1980831691505092915050565b5f620004d88383620004ad565b9150826002028217905092915050565b620004f382620002b1565b67ffffffffffffffff8111156200050f576200050e620000d2565b5b6200051b8254620002e8565b6200052882828562000451565b5f60209050601f8311600181146200055e575f841562000549578287015190505b620005558582620004cb565b865550620005c4565b601f1984166200056e866200031c565b5f5b82811015620005975784890151825560018201915060208501945060208101905062000570565b86831015620005b75784890151620005b3601f891682620004ad565b8355505b6001600288020188555050505b505050505050565b61285780620005da5f395ff3fe608060405260043610610113575f3560e01c80638da5cb5b1161009f578063c4e41b2211610063578063c4e41b22146103b3578063c87b56dd146103dd578063e985e9c514610419578063efef39a114610455578063f2cee92b1461047157610113565b80638da5cb5b146102e557806395d89b411461030f578063a22cb46514610339578063b88d4fde14610361578063bdbed7221461038957610113565b806323b872dd116100e657806323b872dd146101e157806342842e0e146102095780636352211e1461023157806370a082311461026d5780637dc0bf3f146102a957610113565b806301ffc9a71461011757806306fdde0314610153578063081812fc1461017d578063095ea7b3146101b9575b5f80fd5b348015610122575f80fd5b5061013d60048036038101906101389190611ca3565b610499565b60405161014a9190611ce8565b60405180910390f35b34801561015e575f80fd5b5061016761057a565b6040516101749190611d8b565b60405180910390f35b348015610188575f80fd5b506101a3600480360381019061019e9190611dde565b610609565b6040516101b09190611e48565b60405180910390f35b3480156101c4575f80fd5b506101df60048036038101906101da9190611e8b565b610624565b005b3480156101ec575f80fd5b5061020760048036038101906102029190611ec9565b61063a565b005b348015610214575f80fd5b5061022f600480360381019061022a9190611ec9565b610739565b005b34801561023c575f80fd5b5061025760048036038101906102529190611dde565b610758565b6040516102649190611e48565b60405180910390f35b348015610278575f80fd5b50610293600480360381019061028e9190611f19565b610769565b6040516102a09190611f53565b60405180910390f35b3480156102b4575f80fd5b506102cf60048036038101906102ca9190611dde565b61081f565b6040516102dc9190611ce8565b60405180910390f35b3480156102f0575f80fd5b506102f961083c565b6040516103069190611e48565b60405180910390f35b34801561031a575f80fd5b50610323610861565b6040516103309190611d8b565b60405180910390f35b348015610344575f80fd5b5061035f600480360381019061035a9190611f96565b6108f1565b005b34801561036c575f80fd5b5061038760048036038101906103829190612100565b610907565b005b348015610394575f80fd5b5061039d61092c565b6040516103aa9190612237565b60405180910390f35b3480156103be575f80fd5b506103c7610982565b6040516103d49190611f53565b60405180910390f35b3480156103e8575f80fd5b5061040360048036038101906103fe9190611dde565b61098b565b6040516104109190611d8b565b60405180910390f35b348015610424575f80fd5b5061043f600480360381019061043a9190612257565b6109f1565b60405161044c9190611ce8565b60405180910390f35b61046f600480360381019061046a9190611dde565b610a7f565b005b34801561047c575f80fd5b5061049760048036038101906104929190611dde565b610c69565b005b5f7f80ac58cd000000000000000000000000000000000000000000000000000000007bffffffffffffffffffffffffffffffffffffffffffffffffffffffff1916827bffffffffffffffffffffffffffffffffffffffffffffffffffffffff1916148061056357507f5b5e139f000000000000000000000000000000000000000000000000000000007bffffffffffffffffffffffffffffffffffffffffffffffffffffffff1916827bffffffffffffffffffffffffffffffffffffffffffffffffffffffff1916145b80610573575061057282610dcb565b5b9050919050565b60605f8054610588906122c2565b80601f01602080910402602001604051908101604052809291908181526020018280546105b4906122c2565b80156105ff5780601f106105d6576101008083540402835291602001916105ff565b820191905f5260205f20905b8154815290600101906020018083116105e257829003601f168201915b5050505050905090565b5f61061382610e34565b5061061d82610eba565b9050919050565b6106368282610631610ef3565b610efa565b5050565b5f73ffffffffffffffffffffffffffffffffffffffff168273ffffffffffffffffffffffffffffffffffffffff16036106aa575f6040517f64a0ae920000000000000000000000000000000000000000000000000000000081526004016106a19190611e48565b60405180910390fd5b5f6106bd83836106b8610ef3565b610f0c565b90508373ffffffffffffffffffffffffffffffffffffffff168173ffffffffffffffffffffffffffffffffffffffff1614610733578382826040517f64283d7b00000000000000000000000000000000000000000000000000000000815260040161072a939291906122f2565b60405180910390fd5b50505050565b61075383838360405180602001604052805f815250610907565b505050565b5f61076282610e34565b9050919050565b5f8073ffffffffffffffffffffffffffffffffffffffff168273ffffffffffffffffffffffffffffffffffffffff16036107da575f6040517f89c62b640000000000000000000000000000000000000000000000000000000081526004016107d19190611e48565b60405180910390fd5b60035f8373ffffffffffffffffffffffffffffffffffffffff1673ffffffffffffffffffffffffffffffffffffffff1681526020019081526020015f20549050919050565b6007602052805f5260405f205f915054906101000a900460ff1681565b60065f9054906101000a900473ffffffffffffffffffffffffffffffffffffffff1681565b606060018054610870906122c2565b80601f016020809104026020016040519081016040528092919081815260200182805461089c906122c2565b80156108e75780601f106108be576101008083540402835291602001916108e7565b820191905f5260205f20905b8154815290600101906020018083116108ca57829003601f168201915b5050505050905090565b6109036108fc610ef3565b8383611117565b5050565b61091284848461063a565b61092661091d610ef3565b85858585611280565b50505050565b6060600980548060200260200160405190810160405280929190818152602001828054801561097857602002820191905f5260205f20905b815481526020019060010190808311610964575b5050505050905090565b5f600854905090565b606061099682610e34565b505f6109a061142c565b90505f8151116109be5760405180602001604052805f8152506109e9565b806109c88461144c565b6040516020016109d9929190612387565b6040516020818303038152906040525b915050919050565b5f60055f8473ffffffffffffffffffffffffffffffffffffffff1673ffffffffffffffffffffffffffffffffffffffff1681526020019081526020015f205f8373ffffffffffffffffffffffffffffffffffffffff1673ffffffffffffffffffffffffffffffffffffffff1681526020019081526020015f205f9054906101000a900460ff16905092915050565b60075f8281526020019081526020015f205f9054906101000a900460ff16610adc576040517f08c379a0000000000000000000000000000000000000000000000000000000008152600401610ad390612403565b60405180910390fd5b5f610ae682610758565b90503373ffffffffffffffffffffffffffffffffffffffff168173ffffffffffffffffffffffffffffffffffffffff1603610b56576040517f08c379a0000000000000000000000000000000000000000000000000000000008152600401610b4d9061246b565b60405180910390fd5b3073ffffffffffffffffffffffffffffffffffffffff16610b7683610609565b73ffffffffffffffffffffffffffffffffffffffff1614610bcc576040517f08c379a0000000000000000000000000000000000000000000000000000000008152600401610bc3906124f9565b60405180910390fd5b670de0b6b3a76400003414610c16576040517f08c379a0000000000000000000000000000000000000000000000000000000008152600401610c0d90612561565b60405180910390fd5b8073ffffffffffffffffffffffffffffffffffffffff166108fc3490811502906040515f60405180830381858888f19350505050158015610c59573d5f803e3d5ffd5b50610c65813384611516565b5050565b60065f9054906101000a900473ffffffffffffffffffffffffffffffffffffffff1673ffffffffffffffffffffffffffffffffffffffff163373ffffffffffffffffffffffffffffffffffffffff1614610cf8576040517f08c379a0000000000000000000000000000000000000000000000000000000008152600401610cef906125c9565b60405180910390fd5b60075f8281526020019081526020015f205f9054906101000a900460ff1615610d56576040517f08c379a0000000000000000000000000000000000000000000000000000000008152600401610d4d90612631565b60405180910390fd5b610d60338261167e565b600160075f8381526020019081526020015f205f6101000a81548160ff021916908315150217905550600160085f828254610d9b919061267c565b92505081905550600981908060018154018082558091505060019003905f5260205f20015f909190919091505550565b5f7f01ffc9a7000000000000000000000000000000000000000000000000000000007bffffffffffffffffffffffffffffffffffffffffffffffffffffffff1916827bffffffffffffffffffffffffffffffffffffffffffffffffffffffff1916149050919050565b5f80610e3f83611771565b90505f73ffffffffffffffffffffffffffffffffffffffff168173ffffffffffffffffffffffffffffffffffffffff1603610eb157826040517f7e273289000000000000000000000000000000000000000000000000000000008152600401610ea89190611f53565b60405180910390fd5b80915050919050565b5f60045f8381526020019081526020015f205f9054906101000a900473ffffffffffffffffffffffffffffffffffffffff169050919050565b5f33905090565b610f0783838360016117aa565b505050565b5f80610f1784611771565b90505f73ffffffffffffffffffffffffffffffffffffffff168373ffffffffffffffffffffffffffffffffffffffff1614610f5857610f57818486611969565b5b5f73ffffffffffffffffffffffffffffffffffffffff168173ffffffffffffffffffffffffffffffffffffffff1614610fe357610f975f855f806117aa565b600160035f8373ffffffffffffffffffffffffffffffffffffffff1673ffffffffffffffffffffffffffffffffffffffff1681526020019081526020015f205f82825403925050819055505b5f73ffffffffffffffffffffffffffffffffffffffff168573ffffffffffffffffffffffffffffffffffffffff161461106257600160035f8773ffffffffffffffffffffffffffffffffffffffff1673ffffffffffffffffffffffffffffffffffffffff1681526020019081526020015f205f82825401925050819055505b8460025f8681526020019081526020015f205f6101000a81548173ffffffffffffffffffffffffffffffffffffffff021916908373ffffffffffffffffffffffffffffffffffffffff160217905550838573ffffffffffffffffffffffffffffffffffffffff168273ffffffffffffffffffffffffffffffffffffffff167fddf252ad1be2c89b69c2b068fc378daa952ba7f163c4a11628f55a4df523b3ef60405160405180910390a4809150509392505050565b5f73ffffffffffffffffffffffffffffffffffffffff168273ffffffffffffffffffffffffffffffffffffffff160361118757816040517f5b08ba1800000000000000000000000000000000000000000000000000000000815260040161117e9190611e48565b60405180910390fd5b8060055f8573ffffffffffffffffffffffffffffffffffffffff1673ffffffffffffffffffffffffffffffffffffffff1681526020019081526020015f205f8473ffffffffffffffffffffffffffffffffffffffff1673ffffffffffffffffffffffffffffffffffffffff1681526020019081526020015f205f6101000a81548160ff0219169083151502179055508173ffffffffffffffffffffffffffffffffffffffff168373ffffffffffffffffffffffffffffffffffffffff167f17307eab39ab6107e8899845ad3d59bd9653f200f220920489ca2b5937696c31836040516112739190611ce8565b60405180910390a3505050565b5f8373ffffffffffffffffffffffffffffffffffffffff163b1115611425578273ffffffffffffffffffffffffffffffffffffffff1663150b7a02868685856040518563ffffffff1660e01b81526004016112de9493929190612701565b6020604051808303815f875af192505050801561131957506040513d601f19601f82011682018060405250810190611316919061275f565b60015b61139a573d805f8114611347576040519150601f19603f3d011682016040523d82523d5f602084013e61134c565b606091505b505f81510361139257836040517f64a0ae920000000000000000000000000000000000000000000000000000000081526004016113899190611e48565b60405180910390fd5b805181602001fd5b63150b7a0260e01b7bffffffffffffffffffffffffffffffffffffffffffffffffffffffff1916817bffffffffffffffffffffffffffffffffffffffffffffffffffffffff19161461142357836040517f64a0ae9200000000000000000000000000000000000000000000000000000000815260040161141a9190611e48565b60405180910390fd5b505b5050505050565b60606040518060800160405280604381526020016127df60439139905090565b60605f600161145a84611a2c565b0190505f8167ffffffffffffffff81111561147857611477611fdc565b5b6040519080825280601f01601f1916602001820160405280156114aa5781602001600182028036833780820191505090505b5090505f82602001820190505b60011561150b578080600190039150507f3031323334353637383961626364656600000000000000000000000000000000600a86061a8153600a8581611500576114ff61278a565b5b0494505f85036114b7575b819350505050919050565b5f73ffffffffffffffffffffffffffffffffffffffff168273ffffffffffffffffffffffffffffffffffffffff1603611586575f6040517f64a0ae9200000000000000000000000000000000000000000000000000000000815260040161157d9190611e48565b60405180910390fd5b5f61159283835f610f0c565b90505f73ffffffffffffffffffffffffffffffffffffffff168173ffffffffffffffffffffffffffffffffffffffff160361160457816040517f7e2732890000000000000000000000000000000000000000000000000000000081526004016115fb9190611f53565b60405180910390fd5b8373ffffffffffffffffffffffffffffffffffffffff168173ffffffffffffffffffffffffffffffffffffffff1614611678578382826040517f64283d7b00000000000000000000000000000000000000000000000000000000815260040161166f939291906122f2565b60405180910390fd5b50505050565b5f73ffffffffffffffffffffffffffffffffffffffff168273ffffffffffffffffffffffffffffffffffffffff16036116ee575f6040517f64a0ae920000000000000000000000000000000000000000000000000000000081526004016116e59190611e48565b60405180910390fd5b5f6116fa83835f610f0c565b90505f73ffffffffffffffffffffffffffffffffffffffff168173ffffffffffffffffffffffffffffffffffffffff161461176c575f6040517f73c6ac6e0000000000000000000000000000000000000000000000000000000081526004016117639190611e48565b60405180910390fd5b505050565b5f60025f8381526020019081526020015f205f9054906101000a900473ffffffffffffffffffffffffffffffffffffffff169050919050565b80806117e257505f73ffffffffffffffffffffffffffffffffffffffff168273ffffffffffffffffffffffffffffffffffffffff1614155b15611914575f6117f184610e34565b90505f73ffffffffffffffffffffffffffffffffffffffff168373ffffffffffffffffffffffffffffffffffffffff161415801561185b57508273ffffffffffffffffffffffffffffffffffffffff168173ffffffffffffffffffffffffffffffffffffffff1614155b801561186e575061186c81846109f1565b155b156118b057826040517fa9fbf51f0000000000000000000000000000000000000000000000000000000081526004016118a79190611e48565b60405180910390fd5b811561191257838573ffffffffffffffffffffffffffffffffffffffff168273ffffffffffffffffffffffffffffffffffffffff167f8c5be1e5ebec7d5bd14f71427d1e84f3dd0314c0f7b2291e5b200ac8c7c3b92560405160405180910390a45b505b8360045f8581526020019081526020015f205f6101000a81548173ffffffffffffffffffffffffffffffffffffffff021916908373ffffffffffffffffffffffffffffffffffffffff16021790555050505050565b611974838383611b7d565b611a27575f73ffffffffffffffffffffffffffffffffffffffff168373ffffffffffffffffffffffffffffffffffffffff16036119e857806040517f7e2732890000000000000000000000000000000000000000000000000000000081526004016119df9190611f53565b60405180910390fd5b81816040517f177e802f000000000000000000000000000000000000000000000000000000008152600401611a1e9291906127b7565b60405180910390fd5b505050565b5f805f90507a184f03e93ff9f4daa797ed6e38ed64bf6a1f0100000000000000008310611a88577a184f03e93ff9f4daa797ed6e38ed64bf6a1f0100000000000000008381611a7e57611a7d61278a565b5b0492506040810190505b6d04ee2d6d415b85acef81000000008310611ac5576d04ee2d6d415b85acef81000000008381611abb57611aba61278a565b5b0492506020810190505b662386f26fc100008310611af457662386f26fc100008381611aea57611ae961278a565b5b0492506010810190505b6305f5e1008310611b1d576305f5e1008381611b1357611b1261278a565b5b0492506008810190505b6127108310611b42576127108381611b3857611b3761278a565b5b0492506004810190505b60648310611b655760648381611b5b57611b5a61278a565b5b0492506002810190505b600a8310611b74576001810190505b80915050919050565b5f8073ffffffffffffffffffffffffffffffffffffffff168373ffffffffffffffffffffffffffffffffffffffff1614158015611c3457508273ffffffffffffffffffffffffffffffffffffffff168473ffffffffffffffffffffffffffffffffffffffff161480611bf55750611bf484846109f1565b5b80611c3357508273ffffffffffffffffffffffffffffffffffffffff16611c1b83610eba565b73ffffffffffffffffffffffffffffffffffffffff16145b5b90509392505050565b5f604051905090565b5f80fd5b5f80fd5b5f7fffffffff0000000000000000000000000000000000000000000000000000000082169050919050565b611c8281611c4e565b8114611c8c575f80fd5b50565b5f81359050611c9d81611c79565b92915050565b5f60208284031215611cb857611cb7611c46565b5b5f611cc584828501611c8f565b91505092915050565b5f8115159050919050565b611ce281611cce565b82525050565b5f602082019050611cfb5f830184611cd9565b92915050565b5f81519050919050565b5f82825260208201905092915050565b5f5b83811015611d38578082015181840152602081019050611d1d565b5f8484015250505050565b5f601f19601f8301169050919050565b5f611d5d82611d01565b611d678185611d0b565b9350611d77818560208601611d1b565b611d8081611d43565b840191505092915050565b5f6020820190508181035f830152611da38184611d53565b905092915050565b5f819050919050565b611dbd81611dab565b8114611dc7575f80fd5b50565b5f81359050611dd881611db4565b92915050565b5f60208284031215611df357611df2611c46565b5b5f611e0084828501611dca565b91505092915050565b5f73ffffffffffffffffffffffffffffffffffffffff82169050919050565b5f611e3282611e09565b9050919050565b611e4281611e28565b82525050565b5f602082019050611e5b5f830184611e39565b92915050565b611e6a81611e28565b8114611e74575f80fd5b50565b5f81359050611e8581611e61565b92915050565b5f8060408385031215611ea157611ea0611c46565b5b5f611eae85828601611e77565b9250506020611ebf85828601611dca565b9150509250929050565b5f805f60608486031215611ee057611edf611c46565b5b5f611eed86828701611e77565b9350506020611efe86828701611e77565b9250506040611f0f86828701611dca565b9150509250925092565b5f60208284031215611f2e57611f2d611c46565b5b5f611f3b84828501611e77565b91505092915050565b611f4d81611dab565b82525050565b5f602082019050611f665f830184611f44565b92915050565b611f7581611cce565b8114611f7f575f80fd5b50565b5f81359050611f9081611f6c565b92915050565b5f8060408385031215611fac57611fab611c46565b5b5f611fb985828601611e77565b9250506020611fca85828601611f82565b9150509250929050565b5f80fd5b5f80fd5b7f4e487b71000000000000000000000000000000000000000000000000000000005f52604160045260245ffd5b61201282611d43565b810181811067ffffffffffffffff8211171561203157612030611fdc565b5b80604052505050565b5f612043611c3d565b905061204f8282612009565b919050565b5f67ffffffffffffffff82111561206e5761206d611fdc565b5b61207782611d43565b9050602081019050919050565b828183375f83830152505050565b5f6120a461209f84612054565b61203a565b9050828152602081018484840111156120c0576120bf611fd8565b5b6120cb848285612084565b509392505050565b5f82601f8301126120e7576120e6611fd4565b5b81356120f7848260208601612092565b91505092915050565b5f805f806080858703121561211857612117611c46565b5b5f61212587828801611e77565b945050602061213687828801611e77565b935050604061214787828801611dca565b925050606085013567ffffffffffffffff81111561216857612167611c4a565b5b612174878288016120d3565b91505092959194509250565b5f81519050919050565b5f82825260208201905092915050565b5f819050602082019050919050565b6121b281611dab565b82525050565b5f6121c383836121a9565b60208301905092915050565b5f602082019050919050565b5f6121e582612180565b6121ef818561218a565b93506121fa8361219a565b805f5b8381101561222a57815161221188826121b8565b975061221c836121cf565b9250506001810190506121fd565b5085935050505092915050565b5f6020820190508181035f83015261224f81846121db565b905092915050565b5f806040838503121561226d5761226c611c46565b5b5f61227a85828601611e77565b925050602061228b85828601611e77565b9150509250929050565b7f4e487b71000000000000000000000000000000000000000000000000000000005f52602260045260245ffd5b5f60028204905060018216806122d957607f821691505b6020821081036122ec576122eb612295565b5b50919050565b5f6060820190506123055f830186611e39565b6123126020830185611f44565b61231f6040830184611e39565b949350505050565b5f81905092915050565b5f61233b82611d01565b6123458185612327565b9350612355818560208601611d1b565b80840191505092915050565b7f2e6a736f6e000000000000000000000000000000000000000000000000000000815250565b5f6123928285612331565b915061239e8284612331565b91506123a982612361565b6005820191508190509392505050565b7f546f6b656e20646f6573206e6f742065786973740000000000000000000000005f82015250565b5f6123ed601483611d0b565b91506123f8826123b9565b602082019050919050565b5f6020820190508181035f83015261241a816123e1565b9050919050565b7f596f7520416c7265616479204f776e207468697320746f6b656e0000000000005f82015250565b5f612455601a83611d0b565b915061246082612421565b602082019050919050565b5f6020820190508181035f83015261248281612449565b9050919050565b7f436f6e7472616374206e6f7420617070726f76656420666f72207472616e73665f8201527f6572000000000000000000000000000000000000000000000000000000000000602082015250565b5f6124e3602283611d0b565b91506124ee82612489565b604082019050919050565b5f6020820190508181035f830152612510816124d7565b9050919050565b7f50726963652069732031206574686572000000000000000000000000000000005f82015250565b5f61254b601083611d0b565b915061255682612517565b602082019050919050565b5f6020820190508181035f8301526125788161253f565b9050919050565b7f4f6e6c79204f776e65722063616e206d696e74000000000000000000000000005f82015250565b5f6125b3601383611d0b565b91506125be8261257f565b602082019050919050565b5f6020820190508181035f8301526125e0816125a7565b9050919050565b7f416c7265616479204d696e7465642100000000000000000000000000000000005f82015250565b5f61261b600f83611d0b565b9150612626826125e7565b602082019050919050565b5f6020820190508181035f8301526126488161260f565b9050919050565b7f4e487b71000000000000000000000000000000000000000000000000000000005f52601160045260245ffd5b5f61268682611dab565b915061269183611dab565b92508282019050808211156126a9576126a861264f565b5b92915050565b5f81519050919050565b5f82825260208201905092915050565b5f6126d3826126af565b6126dd81856126b9565b93506126ed818560208601611d1b565b6126f681611d43565b840191505092915050565b5f6080820190506127145f830187611e39565b6127216020830186611e39565b61272e6040830185611f44565b818103606083015261274081846126c9565b905095945050505050565b5f8151905061275981611c79565b92915050565b5f6020828403121561277457612773611c46565b5b5f6127818482850161274b565b91505092915050565b7f4e487b71000000000000000000000000000000000000000000000000000000005f52601260045260245ffd5b5f6040820190506127ca5f830185611e39565b6127d76020830184611f44565b939250505056fe697066733a2f2f62616679626569636b67656a667635636f337779623337337a797274776c706862706e77753779726c716c776b33766479376c77796c6a747063342fa2646970667358221220c36ad027ae2a91346566b185c838d874f65f6401f2a5db9185a71ebf6f1ce6bb64736f6c63430008140033",
  "immutableReferences": {},
  "source": "// SPDX-License-Identifier: MIT\npragma solidity ^0.8.20;\n\nimport \"@openzeppelin/contracts/token/ERC721/ERC721.sol\";\n\ncontract BaseballNFT is ERC721 {\n    // toString()   uint256 Strings     \n    //   \n    using Strings for uint256;\n    address public owner;\n    mapping(uint256 tokenId => bool) public minted;\n    uint256 private totalSupply = 0;\n    uint256[] private allTokenIds;\n\n    constructor(\n        string memory _name,\n        string memory _symbol\n    ) ERC721(_name, _symbol) {\n        owner = msg.sender;\n    }\n\n    function minting(uint tokenId) public {\n        require(msg.sender == owner, \"Only Owner can mint\");\n        //    tokenId    minted \n        require(!minted[tokenId], \"Already Minted!\");\n\n        _mint(msg.sender, tokenId);\n        minted[tokenId] = true;\n        totalSupply += 1;\n        //      \n        allTokenIds.push(tokenId);\n        //     => CA!\n    }\n\n    function purchase(uint256 tokenId) public payable {\n        require(minted[tokenId], \"Token does not exist\");\n        address currentOwner = ownerOf(tokenId);\n        require(currentOwner != msg.sender, \"You Already Own this token\");\n        require(\n            getApproved(tokenId) == address(this),\n            \"Contract not approved for transfer\"\n        );\n        require(msg.value == 1 ether, \"Price is 1 ether\");\n\n        //  \n        payable(currentOwner).transfer(msg.value);\n\n        //     \n        // from, to, tokenId\n        _transfer(currentOwner, msg.sender, tokenId);\n    }\n\n    function tokenURI(\n        uint256 tokenId\n    ) public view override returns (string memory) {\n        _requireOwned(tokenId);\n\n        string memory baseURI = _baseURI();\n        // ipfs://bafybeickgejfv5co3wyb373zyrtwlphbpnwu7yrlqlwk3vdy7lwyljtpc4/0.json\n        return\n            bytes(baseURI).length > 0\n                ? string.concat(baseURI, tokenId.toString(), \".json\")\n                : \"\";\n    }\n\n    function _baseURI() internal pure override returns (string memory) {\n        return\n            \"ipfs://bafybeickgejfv5co3wyb373zyrtwlphbpnwu7yrlqlwk3vdy7lwyljtpc4/\";\n    }\n\n    function getTotalSupply() public view returns (uint256) {\n        return totalSupply;\n    }\n\n    function getAllTokenIds() public view returns (uint256[] memory) {\n        return allTokenIds;\n    }\n}\n",
  "sourcePath": "/home/wnqudgus1234/blockchain11/13.blockchain/250513/mytoken-ui/contracts/BaseballNFT.sol",
  "compiler": {
    "name": "solc",
    "version": "0.8.20+commit.a1b79de6.Emscripten.clang"
  },
  "schemaVersion": "3.4.16",
  "updatedAt": "2025-05-13T04:22:16.005Z",
  "devdoc": {
    "errors": {
      "ERC721IncorrectOwner(address,uint256,address)": [
        {
          "details": "Indicates an error related to the ownership over a particular token. Used in transfers.",
          "params": {
            "owner": "Address of the current owner of a token.",
            "sender": "Address whose tokens are being transferred.",
            "tokenId": "Identifier number of a token."
          }
        }
      ],
      "ERC721InsufficientApproval(address,uint256)": [
        {
          "details": "Indicates a failure with the `operator`s approval. Used in transfers.",
          "params": {
            "operator": "Address that may be allowed to operate on tokens without being their owner.",
            "tokenId": "Identifier number of a token."
          }
        }
      ],
      "ERC721InvalidApprover(address)": [
        {
          "details": "Indicates a failure with the `approver` of a token to be approved. Used in approvals.",
          "params": {
            "approver": "Address initiating an approval operation."
          }
        }
      ],
      "ERC721InvalidOperator(address)": [
        {
          "details": "Indicates a failure with the `operator` to be approved. Used in approvals.",
          "params": {
            "operator": "Address that may be allowed to operate on tokens without being their owner."
          }
        }
      ],
      "ERC721InvalidOwner(address)": [
        {
          "details": "Indicates that an address can't be an owner. For example, `address(0)` is a forbidden owner in ERC-20. Used in balance queries.",
          "params": {
            "owner": "Address of the current owner of a token."
          }
        }
      ],
      "ERC721InvalidReceiver(address)": [
        {
          "details": "Indicates a failure with the token `receiver`. Used in transfers.",
          "params": {
            "receiver": "Address to which tokens are being transferred."
          }
        }
      ],
      "ERC721InvalidSender(address)": [
        {
          "details": "Indicates a failure with the token `sender`. Used in transfers.",
          "params": {
            "sender": "Address whose tokens are being transferred."
          }
        }
      ],
      "ERC721NonexistentToken(uint256)": [
        {
          "details": "Indicates a `tokenId` whose `owner` is the zero address.",
          "params": {
            "tokenId": "Identifier number of a token."
          }
        }
      ]
    },
    "events": {
      "Approval(address,address,uint256)": {
        "details": "Emitted when `owner` enables `approved` to manage the `tokenId` token."
      },
      "ApprovalForAll(address,address,bool)": {
        "details": "Emitted when `owner` enables or disables (`approved`) `operator` to manage all of its assets."
      },
      "Transfer(address,address,uint256)": {
        "details": "Emitted when `tokenId` token is transferred from `from` to `to`."
      }
    },
    "kind": "dev",
    "methods": {
      "approve(address,uint256)": {
        "details": "See {IERC721-approve}."
      },
      "balanceOf(address)": {
        "details": "See {IERC721-balanceOf}."
      },
      "getApproved(uint256)": {
        "details": "See {IERC721-getApproved}."
      },
      "isApprovedForAll(address,address)": {
        "details": "See {IERC721-isApprovedForAll}."
      },
      "name()": {
        "details": "See {IERC721Metadata-name}."
      },
      "ownerOf(uint256)": {
        "details": "See {IERC721-ownerOf}."
      },
      "safeTransferFrom(address,address,uint256)": {
        "details": "See {IERC721-safeTransferFrom}."
      },
      "safeTransferFrom(address,address,uint256,bytes)": {
        "details": "See {IERC721-safeTransferFrom}."
      },
      "setApprovalForAll(address,bool)": {
        "details": "See {IERC721-setApprovalForAll}."
      },
      "supportsInterface(bytes4)": {
        "details": "See {IERC165-supportsInterface}."
      },
      "symbol()": {
        "details": "See {IERC721Metadata-symbol}."
      },
      "tokenURI(uint256)": {
        "details": "See {IERC721Metadata-tokenURI}."
      },
      "transferFrom(address,address,uint256)": {
        "details": "See {IERC721-transferFrom}."
      }
    },
    "version": 1
  },
  "userdoc": {
    "kind": "user",
    "methods": {},
    "version": 1
  }
}